{
  "contractName": "AppointmentFactory",
  "abi": [
    {
      "inputs": [
        {
          "internalType": "address",
          "name": "_therapistRegistryAddress",
          "type": "address"
        }
      ],
      "stateMutability": "nonpayable",
      "type": "constructor"
    },
    {
      "anonymous": false,
      "inputs": [
        {
          "indexed": true,
          "internalType": "address",
          "name": "bookingAddress",
          "type": "address"
        },
        {
          "indexed": true,
          "internalType": "address",
          "name": "patient",
          "type": "address"
        },
        {
          "indexed": true,
          "internalType": "address",
          "name": "therapist",
          "type": "address"
        }
      ],
      "name": "BookingCreated",
      "type": "event"
    },
    {
      "inputs": [
        {
          "internalType": "uint256",
          "name": "",
          "type": "uint256"
        }
      ],
      "name": "deployedBookings",
      "outputs": [
        {
          "internalType": "address",
          "name": "",
          "type": "address"
        }
      ],
      "stateMutability": "view",
      "type": "function"
    },
    {
      "inputs": [
        {
          "internalType": "address",
          "name": "",
          "type": "address"
        },
        {
          "internalType": "uint256",
          "name": "",
          "type": "uint256"
        }
      ],
      "name": "patientBookings",
      "outputs": [
        {
          "internalType": "address",
          "name": "",
          "type": "address"
        }
      ],
      "stateMutability": "view",
      "type": "function"
    },
    {
      "inputs": [
        {
          "internalType": "address",
          "name": "",
          "type": "address"
        },
        {
          "internalType": "uint256",
          "name": "",
          "type": "uint256"
        }
      ],
      "name": "therapistBookings",
      "outputs": [
        {
          "internalType": "address",
          "name": "",
          "type": "address"
        }
      ],
      "stateMutability": "view",
      "type": "function"
    },
    {
      "inputs": [],
      "name": "therapistRegistry",
      "outputs": [
        {
          "internalType": "contract TherapistRegistry",
          "name": "",
          "type": "address"
        }
      ],
      "stateMutability": "view",
      "type": "function"
    },
    {
      "inputs": [
        {
          "internalType": "address",
          "name": "_therapistAddress",
          "type": "address"
        },
        {
          "internalType": "string",
          "name": "_date",
          "type": "string"
        },
        {
          "internalType": "string",
          "name": "_time",
          "type": "string"
        },
        {
          "internalType": "string",
          "name": "_anonymousId",
          "type": "string"
        },
        {
          "internalType": "string",
          "name": "_sessionType",
          "type": "string"
        }
      ],
      "name": "createBooking",
      "outputs": [
        {
          "internalType": "address",
          "name": "",
          "type": "address"
        }
      ],
      "stateMutability": "nonpayable",
      "type": "function"
    },
    {
      "inputs": [],
      "name": "getDeployedBookings",
      "outputs": [
        {
          "internalType": "address[]",
          "name": "",
          "type": "address[]"
        }
      ],
      "stateMutability": "view",
      "type": "function"
    },
    {
      "inputs": [
        {
          "internalType": "address",
          "name": "_patientAddress",
          "type": "address"
        }
      ],
      "name": "getPatientBookings",
      "outputs": [
        {
          "internalType": "address[]",
          "name": "",
          "type": "address[]"
        }
      ],
      "stateMutability": "view",
      "type": "function"
    },
    {
      "inputs": [
        {
          "internalType": "address",
          "name": "_therapistAddress",
          "type": "address"
        }
      ],
      "name": "getTherapistBookings",
      "outputs": [
        {
          "internalType": "address[]",
          "name": "",
          "type": "address[]"
        }
      ],
      "stateMutability": "view",
      "type": "function"
    }
  ],
  "bytecode": "0x608060405234801562000010575f80fd5b5060405162002a1438038062002a148339818101604052810190620000369190620000e1565b805f806101000a81548173ffffffffffffffffffffffffffffffffffffffff021916908373ffffffffffffffffffffffffffffffffffffffff1602179055505062000111565b5f80fd5b5f73ffffffffffffffffffffffffffffffffffffffff82169050919050565b5f620000ab8262000080565b9050919050565b620000bd816200009f565b8114620000c8575f80fd5b50565b5f81519050620000db81620000b2565b92915050565b5f60208284031215620000f957620000f86200007c565b5b5f6200010884828501620000cb565b91505092915050565b6128f5806200011f5f395ff3fe608060405234801562000010575f80fd5b506004361062000092575f3560e01c8063318fb3df1162000061578063318fb3df146200015a578063a2122bab1462000190578063b1f91cfc14620001b2578063decb77b914620001e85762000092565b8063084533f0146200009657806309036b7014620000cc578063258bf80f1462000102578063308d4c6c1462000124575b5f80fd5b620000b46004803603810190620000ae9190620008c3565b6200021e565b604051620000c3919062000936565b60405180910390f35b620000ea6004803603810190620000e4919062000980565b6200025a565b604051620000f9919062000936565b60405180910390f35b6200010c620002a3565b6040516200011b919062000a8c565b60405180910390f35b6200014260048036038101906200013c919062000aae565b62000330565b60405162000151919062000a8c565b60405180910390f35b62000178600480360381019062000172919062000aae565b620003fa565b60405162000187919062000a8c565b60405180910390f35b6200019a620004c4565b604051620001a9919062000b45565b60405180910390f35b620001d06004803603810190620001ca919062000cb8565b620004e7565b604051620001df919062000936565b60405180910390f35b62000206600480360381019062000200919062000980565b62000823565b60405162000215919062000936565b60405180910390f35b600181815481106200022e575f80fd5b905f5260205f20015f915054906101000a900473ffffffffffffffffffffffffffffffffffffffff1681565b6002602052815f5260405f20818154811062000274575f80fd5b905f5260205f20015f915091509054906101000a900473ffffffffffffffffffffffffffffffffffffffff1681565b606060018054806020026020016040519081016040528092919081815260200182805480156200032657602002820191905f5260205f20905b815f9054906101000a900473ffffffffffffffffffffffffffffffffffffffff1673ffffffffffffffffffffffffffffffffffffffff1681526020019060010190808311620002dc575b5050505050905090565b606060035f8373ffffffffffffffffffffffffffffffffffffffff1673ffffffffffffffffffffffffffffffffffffffff1681526020019081526020015f20805480602002602001604051908101604052809291908181526020018280548015620003ee57602002820191905f5260205f20905b815f9054906101000a900473ffffffffffffffffffffffffffffffffffffffff1673ffffffffffffffffffffffffffffffffffffffff1681526020019060010190808311620003a4575b50505050509050919050565b606060025f8373ffffffffffffffffffffffffffffffffffffffff1673ffffffffffffffffffffffffffffffffffffffff1681526020019081526020015f20805480602002602001604051908101604052809291908181526020018280548015620004b857602002820191905f5260205f20905b815f9054906101000a900473ffffffffffffffffffffffffffffffffffffffff1673ffffffffffffffffffffffffffffffffffffffff16815260200190600101908083116200046e575b50505050509050919050565b5f8054906101000a900473ffffffffffffffffffffffffffffffffffffffff1681565b5f805f9054906101000a900473ffffffffffffffffffffffffffffffffffffffff1673ffffffffffffffffffffffffffffffffffffffff1663c73e5203876040518263ffffffff1660e01b815260040162000543919062000936565b602060405180830381865afa1580156200055f573d5f803e3d5ffd5b505050506040513d601f19601f8201168201806040525081019062000585919062000df2565b620005c7576040517f08c379a0000000000000000000000000000000000000000000000000000000008152600401620005be9062000e80565b60405180910390fd5b5f338787878787604051620005dc906200086c565b620005ed9695949392919062000f14565b604051809103905ff08015801562000607573d5f803e3d5ffd5b5090505f819050600181908060018154018082558091505060019003905f5260205f20015f9091909190916101000a81548173ffffffffffffffffffffffffffffffffffffffff021916908373ffffffffffffffffffffffffffffffffffffffff16021790555060025f3373ffffffffffffffffffffffffffffffffffffffff1673ffffffffffffffffffffffffffffffffffffffff1681526020019081526020015f2081908060018154018082558091505060019003905f5260205f20015f9091909190916101000a81548173ffffffffffffffffffffffffffffffffffffffff021916908373ffffffffffffffffffffffffffffffffffffffff16021790555060035f8973ffffffffffffffffffffffffffffffffffffffff1673ffffffffffffffffffffffffffffffffffffffff1681526020019081526020015f2081908060018154018082558091505060019003905f5260205f20015f9091909190916101000a81548173ffffffffffffffffffffffffffffffffffffffff021916908373ffffffffffffffffffffffffffffffffffffffff1602179055508773ffffffffffffffffffffffffffffffffffffffff163373ffffffffffffffffffffffffffffffffffffffff168273ffffffffffffffffffffffffffffffffffffffff167f39801240c267f4c86b4a5e81de4e2f82cbf6d3a760c338c642335b62e922285e60405160405180910390a4809250505095945050505050565b6003602052815f5260405f2081815481106200083d575f80fd5b905f5260205f20015f915091509054906101000a900473ffffffffffffffffffffffffffffffffffffffff1681565b6119248062000f9c83390190565b5f604051905090565b5f80fd5b5f80fd5b5f819050919050565b6200089f816200088b565b8114620008aa575f80fd5b50565b5f81359050620008bd8162000894565b92915050565b5f60208284031215620008db57620008da62000883565b5b5f620008ea84828501620008ad565b91505092915050565b5f73ffffffffffffffffffffffffffffffffffffffff82169050919050565b5f6200091e82620008f3565b9050919050565b620009308162000912565b82525050565b5f6020820190506200094b5f83018462000925565b92915050565b6200095c8162000912565b811462000967575f80fd5b50565b5f813590506200097a8162000951565b92915050565b5f806040838503121562000999576200099862000883565b5b5f620009a8858286016200096a565b9250506020620009bb85828601620008ad565b9150509250929050565b5f81519050919050565b5f82825260208201905092915050565b5f819050602082019050919050565b620009f98162000912565b82525050565b5f62000a0c8383620009ee565b60208301905092915050565b5f602082019050919050565b5f62000a3082620009c5565b62000a3c8185620009cf565b935062000a4983620009df565b805f5b8381101562000a7f57815162000a638882620009ff565b975062000a708362000a18565b92505060018101905062000a4c565b5085935050505092915050565b5f6020820190508181035f83015262000aa6818462000a24565b905092915050565b5f6020828403121562000ac65762000ac562000883565b5b5f62000ad5848285016200096a565b91505092915050565b5f819050919050565b5f62000b0762000b0162000afb84620008f3565b62000ade565b620008f3565b9050919050565b5f62000b1a8262000ae7565b9050919050565b5f62000b2d8262000b0e565b9050919050565b62000b3f8162000b21565b82525050565b5f60208201905062000b5a5f83018462000b34565b92915050565b5f80fd5b5f80fd5b5f601f19601f8301169050919050565b7f4e487b71000000000000000000000000000000000000000000000000000000005f52604160045260245ffd5b62000bb08262000b68565b810181811067ffffffffffffffff8211171562000bd25762000bd162000b78565b5b80604052505050565b5f62000be66200087a565b905062000bf4828262000ba5565b919050565b5f67ffffffffffffffff82111562000c165762000c1562000b78565b5b62000c218262000b68565b9050602081019050919050565b828183375f83830152505050565b5f62000c5262000c4c8462000bf9565b62000bdb565b90508281526020810184848401111562000c715762000c7062000b64565b5b62000c7e84828562000c2e565b509392505050565b5f82601f83011262000c9d5762000c9c62000b60565b5b813562000caf84826020860162000c3c565b91505092915050565b5f805f805f60a0868803121562000cd45762000cd362000883565b5b5f62000ce3888289016200096a565b955050602086013567ffffffffffffffff81111562000d075762000d0662000887565b5b62000d158882890162000c86565b945050604086013567ffffffffffffffff81111562000d395762000d3862000887565b5b62000d478882890162000c86565b935050606086013567ffffffffffffffff81111562000d6b5762000d6a62000887565b5b62000d798882890162000c86565b925050608086013567ffffffffffffffff81111562000d9d5762000d9c62000887565b5b62000dab8882890162000c86565b9150509295509295909350565b5f8115159050919050565b62000dce8162000db8565b811462000dd9575f80fd5b50565b5f8151905062000dec8162000dc3565b92915050565b5f6020828403121562000e0a5762000e0962000883565b5b5f62000e198482850162000ddc565b91505092915050565b5f82825260208201905092915050565b7f546865726170697374206973206e6f74207665726966696564000000000000005f82015250565b5f62000e6860198362000e22565b915062000e758262000e32565b602082019050919050565b5f6020820190508181035f83015262000e998162000e5a565b9050919050565b5f81519050919050565b5f5b8381101562000ec957808201518184015260208101905062000eac565b5f8484015250505050565b5f62000ee08262000ea0565b62000eec818562000e22565b935062000efe81856020860162000eaa565b62000f098162000b68565b840191505092915050565b5f60c08201905062000f295f83018962000925565b62000f38602083018862000925565b818103604083015262000f4c818762000ed4565b9050818103606083015262000f62818662000ed4565b9050818103608083015262000f78818562000ed4565b905081810360a083015262000f8e818462000ed4565b905097965050505050505056fe608060405234801562000010575f80fd5b5060405162001924380380620019248339818101604052810190620000369190620002f6565b855f806101000a81548173ffffffffffffffffffffffffffffffffffffffff021916908373ffffffffffffffffffffffffffffffffffffffff1602179055508460015f6101000a81548173ffffffffffffffffffffffffffffffffffffffff021916908373ffffffffffffffffffffffffffffffffffffffff1602179055508360029081620000c6919062000641565b508260039081620000d8919062000641565b508160049081620000ea919062000641565b508060059081620000fc919062000641565b504260078190555050505050505062000725565b5f604051905090565b5f80fd5b5f80fd5b5f73ffffffffffffffffffffffffffffffffffffffff82169050919050565b5f6200014c8262000121565b9050919050565b6200015e8162000140565b811462000169575f80fd5b50565b5f815190506200017c8162000153565b92915050565b5f80fd5b5f80fd5b5f601f19601f8301169050919050565b7f4e487b71000000000000000000000000000000000000000000000000000000005f52604160045260245ffd5b620001d2826200018a565b810181811067ffffffffffffffff82111715620001f457620001f36200019a565b5b80604052505050565b5f6200020862000110565b9050620002168282620001c7565b919050565b5f67ffffffffffffffff8211156200023857620002376200019a565b5b62000243826200018a565b9050602081019050919050565b5f5b838110156200026f57808201518184015260208101905062000252565b5f8484015250505050565b5f620002906200028a846200021b565b620001fd565b905082815260208101848484011115620002af57620002ae62000186565b5b620002bc84828562000250565b509392505050565b5f82601f830112620002db57620002da62000182565b5b8151620002ed8482602086016200027a565b91505092915050565b5f805f805f8060c0878903121562000313576200031262000119565b5b5f6200032289828a016200016c565b96505060206200033589828a016200016c565b955050604087015167ffffffffffffffff8111156200035957620003586200011d565b5b6200036789828a01620002c4565b945050606087015167ffffffffffffffff8111156200038b576200038a6200011d565b5b6200039989828a01620002c4565b935050608087015167ffffffffffffffff811115620003bd57620003bc6200011d565b5b620003cb89828a01620002c4565b92505060a087015167ffffffffffffffff811115620003ef57620003ee6200011d565b5b620003fd89828a01620002c4565b9150509295509295509295565b5f81519050919050565b7f4e487b71000000000000000000000000000000000000000000000000000000005f52602260045260245ffd5b5f60028204905060018216806200045957607f821691505b6020821081036200046f576200046e62000414565b5b50919050565b5f819050815f5260205f209050919050565b5f6020601f8301049050919050565b5f82821b905092915050565b5f60088302620004d37fffffffffffffffffffffffffffffffffffffffffffffffffffffffffffffffff8262000496565b620004df868362000496565b95508019841693508086168417925050509392505050565b5f819050919050565b5f819050919050565b5f62000529620005236200051d84620004f7565b62000500565b620004f7565b9050919050565b5f819050919050565b620005448362000509565b6200055c620005538262000530565b848454620004a2565b825550505050565b5f90565b6200057262000564565b6200057f81848462000539565b505050565b5b81811015620005a6576200059a5f8262000568565b60018101905062000585565b5050565b601f821115620005f557620005bf8162000475565b620005ca8462000487565b81016020851015620005da578190505b620005f2620005e98562000487565b83018262000584565b50505b505050565b5f82821c905092915050565b5f620006175f1984600802620005fa565b1980831691505092915050565b5f62000631838362000606565b9150826002028217905092915050565b6200064c826200040a565b67ffffffffffffffff8111156200066857620006676200019a565b5b62000674825462000441565b62000681828285620005aa565b5f60209050601f831160018114620006b7575f8415620006a2578287015190505b620006ae858262000624565b8655506200071d565b601f198416620006c78662000475565b5f5b82811015620006f057848901518255600182019150602085019450602081019050620006c9565b868310156200071057848901516200070c601f89168262000606565b8355505b6001600288020188555050505b505050505050565b6111f180620007335f395ff3fe608060405234801561000f575f80fd5b50600436106100f3575f3560e01c806395ee122111610095578063c907b86a11610064578063c907b86a14610219578063cf09e0d01461023f578063e210f50f1461025d578063fea32dd21461027b576100f3565b806395ee1221146101b5578063a3e363a9146101d3578063bc53db20146101dd578063bd96bd20146101fb576100f3565b806365db3264116100d157806365db3264146101515780637c65a57a1461016f5780637fa6933c1461018d57806385f8876e14610197576100f3565b8063221ce282146100f757806337192ba6146101155780633e2afd9b14610133575b5f80fd5b6100ff610285565b60405161010c9190610d3b565b60405180910390f35b61011d610311565b60405161012a9190610d75565b60405180910390f35b61013b610357565b6040516101489190610d75565b60405180910390f35b61015961036a565b6040516101669190610d3b565b60405180910390f35b6101776103f6565b6040516101849190610dcd565b60405180910390f35b61019561041b565b005b61019f61057b565b6040516101ac9190610d3b565b60405180910390f35b6101bd610607565b6040516101ca9190610d75565b60405180910390f35b6101db61061a565b005b6101e5610775565b6040516101f29190610d75565b60405180910390f35b610203610787565b6040516102109190610dcd565b60405180910390f35b6102216107aa565b60405161023699989796959493929190610de6565b60405180910390f35b610247610a74565b6040516102549190610ea5565b60405180910390f35b610265610a7a565b6040516102729190610d3b565b60405180910390f35b610283610b06565b005b6003805461029290610eeb565b80601f01602080910402602001604051908101604052809291908181526020018280546102be90610eeb565b80156103095780601f106102e057610100808354040283529160200191610309565b820191905f5260205f20905b8154815290600101906020018083116102ec57829003601f168201915b505050505081565b5f60065f9054906101000a900460ff1680156103395750600660019054906101000a900460ff165b80156103525750600660029054906101000a900460ff16155b905090565b600660019054906101000a900460ff1681565b6002805461037790610eeb565b80601f01602080910402602001604051908101604052809291908181526020018280546103a390610eeb565b80156103ee5780601f106103c5576101008083540402835291602001916103ee565b820191905f5260205f20905b8154815290600101906020018083116103d157829003601f168201915b505050505081565b60015f9054906101000a900473ffffffffffffffffffffffffffffffffffffffff1681565b60015f9054906101000a900473ffffffffffffffffffffffffffffffffffffffff1673ffffffffffffffffffffffffffffffffffffffff163373ffffffffffffffffffffffffffffffffffffffff16146104aa576040517f08c379a00000000000000000000000000000000000000000000000000000000081526004016104a190610f8b565b60405180910390fd5b600660029054906101000a900460ff16156104fa576040517f08c379a00000000000000000000000000000000000000000000000000000000081526004016104f190610ff3565b60405180910390fd5b6001600660016101000a81548160ff02191690831515021790555060015f9054906101000a900473ffffffffffffffffffffffffffffffffffffffff1673ffffffffffffffffffffffffffffffffffffffff167fc537bc029391779e7270c5c8aa65c83d00d9341b3ee979aad09e5fc9a81bbd3060405160405180910390a2565b6004805461058890610eeb565b80601f01602080910402602001604051908101604052809291908181526020018280546105b490610eeb565b80156105ff5780601f106105d6576101008083540402835291602001916105ff565b820191905f5260205f20905b8154815290600101906020018083116105e257829003601f168201915b505050505081565b600660029054906101000a900460ff1681565b5f8054906101000a900473ffffffffffffffffffffffffffffffffffffffff1673ffffffffffffffffffffffffffffffffffffffff163373ffffffffffffffffffffffffffffffffffffffff16146106a7576040517f08c379a000000000000000000000000000000000000000000000000000000000815260040161069e90611081565b60405180910390fd5b600660029054906101000a900460ff16156106f7576040517f08c379a00000000000000000000000000000000000000000000000000000000081526004016106ee90610ff3565b60405180910390fd5b600160065f6101000a81548160ff0219169083151502179055505f8054906101000a900473ffffffffffffffffffffffffffffffffffffffff1673ffffffffffffffffffffffffffffffffffffffff167f12b4f761680293e338e62dbf01de9c07e98cd6c758576622aea59cae5edcd1e860405160405180910390a2565b60065f9054906101000a900460ff1681565b5f8054906101000a900473ffffffffffffffffffffffffffffffffffffffff1681565b5f806060806060805f805f805f9054906101000a900473ffffffffffffffffffffffffffffffffffffffff1660015f9054906101000a900473ffffffffffffffffffffffffffffffffffffffff16600260036004600560065f9054906101000a900460ff16600660019054906101000a900460ff16600660029054906101000a900460ff1686805461083b90610eeb565b80601f016020809104026020016040519081016040528092919081815260200182805461086790610eeb565b80156108b25780601f10610889576101008083540402835291602001916108b2565b820191905f5260205f20905b81548152906001019060200180831161089557829003601f168201915b505050505096508580546108c590610eeb565b80601f01602080910402602001604051908101604052809291908181526020018280546108f190610eeb565b801561093c5780601f106109135761010080835404028352916020019161093c565b820191905f5260205f20905b81548152906001019060200180831161091f57829003601f168201915b5050505050955084805461094f90610eeb565b80601f016020809104026020016040519081016040528092919081815260200182805461097b90610eeb565b80156109c65780601f1061099d576101008083540402835291602001916109c6565b820191905f5260205f20905b8154815290600101906020018083116109a957829003601f168201915b505050505094508380546109d990610eeb565b80601f0160208091040260200160405190810160405280929190818152602001828054610a0590610eeb565b8015610a505780601f10610a2757610100808354040283529160200191610a50565b820191905f5260205f20905b815481529060010190602001808311610a3357829003601f168201915b50505050509350985098509850985098509850985098509850909192939495969798565b60075481565b60058054610a8790610eeb565b80601f0160208091040260200160405190810160405280929190818152602001828054610ab390610eeb565b8015610afe5780601f10610ad557610100808354040283529160200191610afe565b820191905f5260205f20905b815481529060010190602001808311610ae157829003601f168201915b505050505081565b5f8054906101000a900473ffffffffffffffffffffffffffffffffffffffff1673ffffffffffffffffffffffffffffffffffffffff163373ffffffffffffffffffffffffffffffffffffffff161480610bab575060015f9054906101000a900473ffffffffffffffffffffffffffffffffffffffff1673ffffffffffffffffffffffffffffffffffffffff163373ffffffffffffffffffffffffffffffffffffffff16145b610bea576040517f08c379a0000000000000000000000000000000000000000000000000000000008152600401610be19061110f565b60405180910390fd5b60065f9054906101000a900460ff161580610c125750600660019054906101000a900460ff16155b610c51576040517f08c379a0000000000000000000000000000000000000000000000000000000008152600401610c489061119d565b60405180910390fd5b6001600660026101000a81548160ff0219169083151502179055503373ffffffffffffffffffffffffffffffffffffffff167fd80414b9938321ac6af19fff3de2ade676e4512cf5e999b58ce61a7d3b60602260405160405180910390a2565b5f81519050919050565b5f82825260208201905092915050565b5f5b83811015610ce8578082015181840152602081019050610ccd565b5f8484015250505050565b5f601f19601f8301169050919050565b5f610d0d82610cb1565b610d178185610cbb565b9350610d27818560208601610ccb565b610d3081610cf3565b840191505092915050565b5f6020820190508181035f830152610d538184610d03565b905092915050565b5f8115159050919050565b610d6f81610d5b565b82525050565b5f602082019050610d885f830184610d66565b92915050565b5f73ffffffffffffffffffffffffffffffffffffffff82169050919050565b5f610db782610d8e565b9050919050565b610dc781610dad565b82525050565b5f602082019050610de05f830184610dbe565b92915050565b5f61012082019050610dfa5f83018c610dbe565b610e07602083018b610dbe565b8181036040830152610e19818a610d03565b90508181036060830152610e2d8189610d03565b90508181036080830152610e418188610d03565b905081810360a0830152610e558187610d03565b9050610e6460c0830186610d66565b610e7160e0830185610d66565b610e7f610100830184610d66565b9a9950505050505050505050565b5f819050919050565b610e9f81610e8d565b82525050565b5f602082019050610eb85f830184610e96565b92915050565b7f4e487b71000000000000000000000000000000000000000000000000000000005f52602260045260245ffd5b5f6002820490506001821680610f0257607f821691505b602082108103610f1557610f14610ebe565b5b50919050565b7f4f6e6c79207468657261706973742063616e20706572666f726d2074686973205f8201527f616374696f6e0000000000000000000000000000000000000000000000000000602082015250565b5f610f75602683610cbb565b9150610f8082610f1b565b604082019050919050565b5f6020820190508181035f830152610fa281610f69565b9050919050565b7f4170706f696e746d656e7420686173206265656e2063616e63656c6c656400005f82015250565b5f610fdd601e83610cbb565b9150610fe882610fa9565b602082019050919050565b5f6020820190508181035f83015261100a81610fd1565b9050919050565b7f4f6e6c792070617469656e742063616e20706572666f726d20746869732061635f8201527f74696f6e00000000000000000000000000000000000000000000000000000000602082015250565b5f61106b602483610cbb565b915061107682611011565b604082019050919050565b5f6020820190508181035f8301526110988161105f565b9050919050565b7f4f6e6c7920626f6f6b696e67207061727469636970616e74732063616e2070655f8201527f72666f726d207468697320616374696f6e000000000000000000000000000000602082015250565b5f6110f9603183610cbb565b91506111048261109f565b604082019050919050565b5f6020820190508181035f830152611126816110ed565b9050919050565b7f43616e6e6f742063616e63656c20636f6e6669726d6564206170706f696e746d5f8201527f656e740000000000000000000000000000000000000000000000000000000000602082015250565b5f611187602383610cbb565b91506111928261112d565b604082019050919050565b5f6020820190508181035f8301526111b48161117b565b905091905056fea2646970667358221220d0eb82a68bff1c0c67896e13205cf46e6d928912610f15046c98305ab7c9ac4864736f6c63430008150033a264697066735822122085b7a21414609afb017fa5fed0dfa4792f4442c2e3be3f5d80588e4e72d8ed7164736f6c63430008150033",
  "immutableReferences": {},
  "source": "\n// SPDX-License-Identifier: MIT\npragma solidity ^0.8.19;\n\nimport \"./TherapistRegistry.sol\";\nimport \"./BookingContract.sol\";\n\ncontract AppointmentFactory {\n    TherapistRegistry public therapistRegistry;\n    address[] public deployedBookings;\n    \n    mapping(address => address[]) public patientBookings;\n    mapping(address => address[]) public therapistBookings;\n    \n    event BookingCreated(address indexed bookingAddress, address indexed patient, address indexed therapist);\n    \n    constructor(address _therapistRegistryAddress) {\n        therapistRegistry = TherapistRegistry(_therapistRegistryAddress);\n    }\n    \n    function createBooking(\n        address _therapistAddress,\n        string memory _date,\n        string memory _time,\n        string memory _anonymousId,\n        string memory _sessionType\n    ) public returns (address) {\n        require(therapistRegistry.isTherapistVerified(_therapistAddress), \"Therapist is not verified\");\n        \n        BookingContract newBooking = new BookingContract(\n            msg.sender,\n            _therapistAddress,\n            _date,\n            _time,\n            _anonymousId,\n            _sessionType\n        );\n        \n        address bookingAddress = address(newBooking);\n        deployedBookings.push(bookingAddress);\n        patientBookings[msg.sender].push(bookingAddress);\n        therapistBookings[_therapistAddress].push(bookingAddress);\n        \n        emit BookingCreated(bookingAddress, msg.sender, _therapistAddress);\n        \n        return bookingAddress;\n    }\n    \n    function getDeployedBookings() public view returns (address[] memory) {\n        return deployedBookings;\n    }\n    \n    function getPatientBookings(address _patientAddress) public view returns (address[] memory) {\n        return patientBookings[_patientAddress];\n    }\n    \n    function getTherapistBookings(address _therapistAddress) public view returns (address[] memory) {\n        return therapistBookings[_therapistAddress];\n    }\n}\n",
  "sourcePath": "/Users/nikhilparajuli/Downloads/Nikhil Docs/Team IntroNep/Blockchain/contracts/AppointmentFactory.sol",
  "compiler": {
    "name": "solc",
    "version": "0.8.21+commit.d9974bed.Emscripten.clang"
  },
  "schemaVersion": "3.4.16",
  "updatedAt": "2025-04-12T04:34:15.089Z",
  "devdoc": {
    "kind": "dev",
    "methods": {},
    "version": 1
  },
  "userdoc": {
    "kind": "user",
    "methods": {},
    "version": 1
  }
}