{
  "contractName": "BookingContract",
  "abi": [
    {
      "inputs": [
        {
          "internalType": "address",
          "name": "_patient",
          "type": "address"
        },
        {
          "internalType": "address",
          "name": "_therapist",
          "type": "address"
        },
        {
          "internalType": "string",
          "name": "_appointmentDate",
          "type": "string"
        },
        {
          "internalType": "string",
          "name": "_appointmentTime",
          "type": "string"
        },
        {
          "internalType": "string",
          "name": "_anonymousId",
          "type": "string"
        },
        {
          "internalType": "string",
          "name": "_sessionType",
          "type": "string"
        }
      ],
      "stateMutability": "nonpayable",
      "type": "constructor"
    },
    {
      "anonymous": false,
      "inputs": [
        {
          "indexed": true,
          "internalType": "address",
          "name": "canceller",
          "type": "address"
        }
      ],
      "name": "AppointmentCancelled",
      "type": "event"
    },
    {
      "anonymous": false,
      "inputs": [
        {
          "indexed": true,
          "internalType": "address",
          "name": "patient",
          "type": "address"
        }
      ],
      "name": "AppointmentConfirmedByPatient",
      "type": "event"
    },
    {
      "anonymous": false,
      "inputs": [
        {
          "indexed": true,
          "internalType": "address",
          "name": "therapist",
          "type": "address"
        }
      ],
      "name": "AppointmentConfirmedByTherapist",
      "type": "event"
    },
    {
      "inputs": [],
      "name": "anonymousId",
      "outputs": [
        {
          "internalType": "string",
          "name": "",
          "type": "string"
        }
      ],
      "stateMutability": "view",
      "type": "function"
    },
    {
      "inputs": [],
      "name": "appointmentDate",
      "outputs": [
        {
          "internalType": "string",
          "name": "",
          "type": "string"
        }
      ],
      "stateMutability": "view",
      "type": "function"
    },
    {
      "inputs": [],
      "name": "appointmentTime",
      "outputs": [
        {
          "internalType": "string",
          "name": "",
          "type": "string"
        }
      ],
      "stateMutability": "view",
      "type": "function"
    },
    {
      "inputs": [],
      "name": "createdAt",
      "outputs": [
        {
          "internalType": "uint256",
          "name": "",
          "type": "uint256"
        }
      ],
      "stateMutability": "view",
      "type": "function"
    },
    {
      "inputs": [],
      "name": "isCancelled",
      "outputs": [
        {
          "internalType": "bool",
          "name": "",
          "type": "bool"
        }
      ],
      "stateMutability": "view",
      "type": "function"
    },
    {
      "inputs": [],
      "name": "isConfirmedByPatient",
      "outputs": [
        {
          "internalType": "bool",
          "name": "",
          "type": "bool"
        }
      ],
      "stateMutability": "view",
      "type": "function"
    },
    {
      "inputs": [],
      "name": "isConfirmedByTherapist",
      "outputs": [
        {
          "internalType": "bool",
          "name": "",
          "type": "bool"
        }
      ],
      "stateMutability": "view",
      "type": "function"
    },
    {
      "inputs": [],
      "name": "patient",
      "outputs": [
        {
          "internalType": "address",
          "name": "",
          "type": "address"
        }
      ],
      "stateMutability": "view",
      "type": "function"
    },
    {
      "inputs": [],
      "name": "sessionType",
      "outputs": [
        {
          "internalType": "string",
          "name": "",
          "type": "string"
        }
      ],
      "stateMutability": "view",
      "type": "function"
    },
    {
      "inputs": [],
      "name": "therapist",
      "outputs": [
        {
          "internalType": "address",
          "name": "",
          "type": "address"
        }
      ],
      "stateMutability": "view",
      "type": "function"
    },
    {
      "inputs": [],
      "name": "confirmByPatient",
      "outputs": [],
      "stateMutability": "nonpayable",
      "type": "function"
    },
    {
      "inputs": [],
      "name": "confirmByTherapist",
      "outputs": [],
      "stateMutability": "nonpayable",
      "type": "function"
    },
    {
      "inputs": [],
      "name": "cancelAppointment",
      "outputs": [],
      "stateMutability": "nonpayable",
      "type": "function"
    },
    {
      "inputs": [],
      "name": "getAppointmentDetails",
      "outputs": [
        {
          "internalType": "address",
          "name": "_patient",
          "type": "address"
        },
        {
          "internalType": "address",
          "name": "_therapist",
          "type": "address"
        },
        {
          "internalType": "string",
          "name": "_appointmentDate",
          "type": "string"
        },
        {
          "internalType": "string",
          "name": "_appointmentTime",
          "type": "string"
        },
        {
          "internalType": "string",
          "name": "_anonymousId",
          "type": "string"
        },
        {
          "internalType": "string",
          "name": "_sessionType",
          "type": "string"
        },
        {
          "internalType": "bool",
          "name": "_isConfirmedByPatient",
          "type": "bool"
        },
        {
          "internalType": "bool",
          "name": "_isConfirmedByTherapist",
          "type": "bool"
        },
        {
          "internalType": "bool",
          "name": "_isCancelled",
          "type": "bool"
        }
      ],
      "stateMutability": "view",
      "type": "function"
    },
    {
      "inputs": [],
      "name": "isFullyConfirmed",
      "outputs": [
        {
          "internalType": "bool",
          "name": "",
          "type": "bool"
        }
      ],
      "stateMutability": "view",
      "type": "function"
    }
  ],
  "bytecode": "0x608060405234801562000010575f80fd5b5060405162001924380380620019248339818101604052810190620000369190620002f6565b855f806101000a81548173ffffffffffffffffffffffffffffffffffffffff021916908373ffffffffffffffffffffffffffffffffffffffff1602179055508460015f6101000a81548173ffffffffffffffffffffffffffffffffffffffff021916908373ffffffffffffffffffffffffffffffffffffffff1602179055508360029081620000c6919062000641565b508260039081620000d8919062000641565b508160049081620000ea919062000641565b508060059081620000fc919062000641565b504260078190555050505050505062000725565b5f604051905090565b5f80fd5b5f80fd5b5f73ffffffffffffffffffffffffffffffffffffffff82169050919050565b5f6200014c8262000121565b9050919050565b6200015e8162000140565b811462000169575f80fd5b50565b5f815190506200017c8162000153565b92915050565b5f80fd5b5f80fd5b5f601f19601f8301169050919050565b7f4e487b71000000000000000000000000000000000000000000000000000000005f52604160045260245ffd5b620001d2826200018a565b810181811067ffffffffffffffff82111715620001f457620001f36200019a565b5b80604052505050565b5f6200020862000110565b9050620002168282620001c7565b919050565b5f67ffffffffffffffff8211156200023857620002376200019a565b5b62000243826200018a565b9050602081019050919050565b5f5b838110156200026f57808201518184015260208101905062000252565b5f8484015250505050565b5f620002906200028a846200021b565b620001fd565b905082815260208101848484011115620002af57620002ae62000186565b5b620002bc84828562000250565b509392505050565b5f82601f830112620002db57620002da62000182565b5b8151620002ed8482602086016200027a565b91505092915050565b5f805f805f8060c0878903121562000313576200031262000119565b5b5f6200032289828a016200016c565b96505060206200033589828a016200016c565b955050604087015167ffffffffffffffff8111156200035957620003586200011d565b5b6200036789828a01620002c4565b945050606087015167ffffffffffffffff8111156200038b576200038a6200011d565b5b6200039989828a01620002c4565b935050608087015167ffffffffffffffff811115620003bd57620003bc6200011d565b5b620003cb89828a01620002c4565b92505060a087015167ffffffffffffffff811115620003ef57620003ee6200011d565b5b620003fd89828a01620002c4565b9150509295509295509295565b5f81519050919050565b7f4e487b71000000000000000000000000000000000000000000000000000000005f52602260045260245ffd5b5f60028204905060018216806200045957607f821691505b6020821081036200046f576200046e62000414565b5b50919050565b5f819050815f5260205f209050919050565b5f6020601f8301049050919050565b5f82821b905092915050565b5f60088302620004d37fffffffffffffffffffffffffffffffffffffffffffffffffffffffffffffffff8262000496565b620004df868362000496565b95508019841693508086168417925050509392505050565b5f819050919050565b5f819050919050565b5f62000529620005236200051d84620004f7565b62000500565b620004f7565b9050919050565b5f819050919050565b620005448362000509565b6200055c620005538262000530565b848454620004a2565b825550505050565b5f90565b6200057262000564565b6200057f81848462000539565b505050565b5b81811015620005a6576200059a5f8262000568565b60018101905062000585565b5050565b601f821115620005f557620005bf8162000475565b620005ca8462000487565b81016020851015620005da578190505b620005f2620005e98562000487565b83018262000584565b50505b505050565b5f82821c905092915050565b5f620006175f1984600802620005fa565b1980831691505092915050565b5f62000631838362000606565b9150826002028217905092915050565b6200064c826200040a565b67ffffffffffffffff8111156200066857620006676200019a565b5b62000674825462000441565b62000681828285620005aa565b5f60209050601f831160018114620006b7575f8415620006a2578287015190505b620006ae858262000624565b8655506200071d565b601f198416620006c78662000475565b5f5b82811015620006f057848901518255600182019150602085019450602081019050620006c9565b868310156200071057848901516200070c601f89168262000606565b8355505b6001600288020188555050505b505050505050565b6111f180620007335f395ff3fe608060405234801561000f575f80fd5b50600436106100f3575f3560e01c806395ee122111610095578063c907b86a11610064578063c907b86a14610219578063cf09e0d01461023f578063e210f50f1461025d578063fea32dd21461027b576100f3565b806395ee1221146101b5578063a3e363a9146101d3578063bc53db20146101dd578063bd96bd20146101fb576100f3565b806365db3264116100d157806365db3264146101515780637c65a57a1461016f5780637fa6933c1461018d57806385f8876e14610197576100f3565b8063221ce282146100f757806337192ba6146101155780633e2afd9b14610133575b5f80fd5b6100ff610285565b60405161010c9190610d3b565b60405180910390f35b61011d610311565b60405161012a9190610d75565b60405180910390f35b61013b610357565b6040516101489190610d75565b60405180910390f35b61015961036a565b6040516101669190610d3b565b60405180910390f35b6101776103f6565b6040516101849190610dcd565b60405180910390f35b61019561041b565b005b61019f61057b565b6040516101ac9190610d3b565b60405180910390f35b6101bd610607565b6040516101ca9190610d75565b60405180910390f35b6101db61061a565b005b6101e5610775565b6040516101f29190610d75565b60405180910390f35b610203610787565b6040516102109190610dcd565b60405180910390f35b6102216107aa565b60405161023699989796959493929190610de6565b60405180910390f35b610247610a74565b6040516102549190610ea5565b60405180910390f35b610265610a7a565b6040516102729190610d3b565b60405180910390f35b610283610b06565b005b6003805461029290610eeb565b80601f01602080910402602001604051908101604052809291908181526020018280546102be90610eeb565b80156103095780601f106102e057610100808354040283529160200191610309565b820191905f5260205f20905b8154815290600101906020018083116102ec57829003601f168201915b505050505081565b5f60065f9054906101000a900460ff1680156103395750600660019054906101000a900460ff165b80156103525750600660029054906101000a900460ff16155b905090565b600660019054906101000a900460ff1681565b6002805461037790610eeb565b80601f01602080910402602001604051908101604052809291908181526020018280546103a390610eeb565b80156103ee5780601f106103c5576101008083540402835291602001916103ee565b820191905f5260205f20905b8154815290600101906020018083116103d157829003601f168201915b505050505081565b60015f9054906101000a900473ffffffffffffffffffffffffffffffffffffffff1681565b60015f9054906101000a900473ffffffffffffffffffffffffffffffffffffffff1673ffffffffffffffffffffffffffffffffffffffff163373ffffffffffffffffffffffffffffffffffffffff16146104aa576040517f08c379a00000000000000000000000000000000000000000000000000000000081526004016104a190610f8b565b60405180910390fd5b600660029054906101000a900460ff16156104fa576040517f08c379a00000000000000000000000000000000000000000000000000000000081526004016104f190610ff3565b60405180910390fd5b6001600660016101000a81548160ff02191690831515021790555060015f9054906101000a900473ffffffffffffffffffffffffffffffffffffffff1673ffffffffffffffffffffffffffffffffffffffff167fc537bc029391779e7270c5c8aa65c83d00d9341b3ee979aad09e5fc9a81bbd3060405160405180910390a2565b6004805461058890610eeb565b80601f01602080910402602001604051908101604052809291908181526020018280546105b490610eeb565b80156105ff5780601f106105d6576101008083540402835291602001916105ff565b820191905f5260205f20905b8154815290600101906020018083116105e257829003601f168201915b505050505081565b600660029054906101000a900460ff1681565b5f8054906101000a900473ffffffffffffffffffffffffffffffffffffffff1673ffffffffffffffffffffffffffffffffffffffff163373ffffffffffffffffffffffffffffffffffffffff16146106a7576040517f08c379a000000000000000000000000000000000000000000000000000000000815260040161069e90611081565b60405180910390fd5b600660029054906101000a900460ff16156106f7576040517f08c379a00000000000000000000000000000000000000000000000000000000081526004016106ee90610ff3565b60405180910390fd5b600160065f6101000a81548160ff0219169083151502179055505f8054906101000a900473ffffffffffffffffffffffffffffffffffffffff1673ffffffffffffffffffffffffffffffffffffffff167f12b4f761680293e338e62dbf01de9c07e98cd6c758576622aea59cae5edcd1e860405160405180910390a2565b60065f9054906101000a900460ff1681565b5f8054906101000a900473ffffffffffffffffffffffffffffffffffffffff1681565b5f806060806060805f805f805f9054906101000a900473ffffffffffffffffffffffffffffffffffffffff1660015f9054906101000a900473ffffffffffffffffffffffffffffffffffffffff16600260036004600560065f9054906101000a900460ff16600660019054906101000a900460ff16600660029054906101000a900460ff1686805461083b90610eeb565b80601f016020809104026020016040519081016040528092919081815260200182805461086790610eeb565b80156108b25780601f10610889576101008083540402835291602001916108b2565b820191905f5260205f20905b81548152906001019060200180831161089557829003601f168201915b505050505096508580546108c590610eeb565b80601f01602080910402602001604051908101604052809291908181526020018280546108f190610eeb565b801561093c5780601f106109135761010080835404028352916020019161093c565b820191905f5260205f20905b81548152906001019060200180831161091f57829003601f168201915b5050505050955084805461094f90610eeb565b80601f016020809104026020016040519081016040528092919081815260200182805461097b90610eeb565b80156109c65780601f1061099d576101008083540402835291602001916109c6565b820191905f5260205f20905b8154815290600101906020018083116109a957829003601f168201915b505050505094508380546109d990610eeb565b80601f0160208091040260200160405190810160405280929190818152602001828054610a0590610eeb565b8015610a505780601f10610a2757610100808354040283529160200191610a50565b820191905f5260205f20905b815481529060010190602001808311610a3357829003601f168201915b50505050509350985098509850985098509850985098509850909192939495969798565b60075481565b60058054610a8790610eeb565b80601f0160208091040260200160405190810160405280929190818152602001828054610ab390610eeb565b8015610afe5780601f10610ad557610100808354040283529160200191610afe565b820191905f5260205f20905b815481529060010190602001808311610ae157829003601f168201915b505050505081565b5f8054906101000a900473ffffffffffffffffffffffffffffffffffffffff1673ffffffffffffffffffffffffffffffffffffffff163373ffffffffffffffffffffffffffffffffffffffff161480610bab575060015f9054906101000a900473ffffffffffffffffffffffffffffffffffffffff1673ffffffffffffffffffffffffffffffffffffffff163373ffffffffffffffffffffffffffffffffffffffff16145b610bea576040517f08c379a0000000000000000000000000000000000000000000000000000000008152600401610be19061110f565b60405180910390fd5b60065f9054906101000a900460ff161580610c125750600660019054906101000a900460ff16155b610c51576040517f08c379a0000000000000000000000000000000000000000000000000000000008152600401610c489061119d565b60405180910390fd5b6001600660026101000a81548160ff0219169083151502179055503373ffffffffffffffffffffffffffffffffffffffff167fd80414b9938321ac6af19fff3de2ade676e4512cf5e999b58ce61a7d3b60602260405160405180910390a2565b5f81519050919050565b5f82825260208201905092915050565b5f5b83811015610ce8578082015181840152602081019050610ccd565b5f8484015250505050565b5f601f19601f8301169050919050565b5f610d0d82610cb1565b610d178185610cbb565b9350610d27818560208601610ccb565b610d3081610cf3565b840191505092915050565b5f6020820190508181035f830152610d538184610d03565b905092915050565b5f8115159050919050565b610d6f81610d5b565b82525050565b5f602082019050610d885f830184610d66565b92915050565b5f73ffffffffffffffffffffffffffffffffffffffff82169050919050565b5f610db782610d8e565b9050919050565b610dc781610dad565b82525050565b5f602082019050610de05f830184610dbe565b92915050565b5f61012082019050610dfa5f83018c610dbe565b610e07602083018b610dbe565b8181036040830152610e19818a610d03565b90508181036060830152610e2d8189610d03565b90508181036080830152610e418188610d03565b905081810360a0830152610e558187610d03565b9050610e6460c0830186610d66565b610e7160e0830185610d66565b610e7f610100830184610d66565b9a9950505050505050505050565b5f819050919050565b610e9f81610e8d565b82525050565b5f602082019050610eb85f830184610e96565b92915050565b7f4e487b71000000000000000000000000000000000000000000000000000000005f52602260045260245ffd5b5f6002820490506001821680610f0257607f821691505b602082108103610f1557610f14610ebe565b5b50919050565b7f4f6e6c79207468657261706973742063616e20706572666f726d2074686973205f8201527f616374696f6e0000000000000000000000000000000000000000000000000000602082015250565b5f610f75602683610cbb565b9150610f8082610f1b565b604082019050919050565b5f6020820190508181035f830152610fa281610f69565b9050919050565b7f4170706f696e746d656e7420686173206265656e2063616e63656c6c656400005f82015250565b5f610fdd601e83610cbb565b9150610fe882610fa9565b602082019050919050565b5f6020820190508181035f83015261100a81610fd1565b9050919050565b7f4f6e6c792070617469656e742063616e20706572666f726d20746869732061635f8201527f74696f6e00000000000000000000000000000000000000000000000000000000602082015250565b5f61106b602483610cbb565b915061107682611011565b604082019050919050565b5f6020820190508181035f8301526110988161105f565b9050919050565b7f4f6e6c7920626f6f6b696e67207061727469636970616e74732063616e2070655f8201527f72666f726d207468697320616374696f6e000000000000000000000000000000602082015250565b5f6110f9603183610cbb565b91506111048261109f565b604082019050919050565b5f6020820190508181035f830152611126816110ed565b9050919050565b7f43616e6e6f742063616e63656c20636f6e6669726d6564206170706f696e746d5f8201527f656e740000000000000000000000000000000000000000000000000000000000602082015250565b5f611187602383610cbb565b91506111928261112d565b604082019050919050565b5f6020820190508181035f8301526111b48161117b565b905091905056fea2646970667358221220d0eb82a68bff1c0c67896e13205cf46e6d928912610f15046c98305ab7c9ac4864736f6c63430008150033",
  "immutableReferences": {},
  "source": "\n// SPDX-License-Identifier: MIT\npragma solidity ^0.8.19;\n\ncontract BookingContract {\n    address public patient;\n    address public therapist;\n    string public appointmentDate;\n    string public appointmentTime;\n    string public anonymousId;\n    string public sessionType;\n    bool public isConfirmedByPatient;\n    bool public isConfirmedByTherapist;\n    bool public isCancelled;\n    uint public createdAt;\n    \n    event AppointmentConfirmedByPatient(address indexed patient);\n    event AppointmentConfirmedByTherapist(address indexed therapist);\n    event AppointmentCancelled(address indexed canceller);\n    \n    modifier onlyParticipant() {\n        require(msg.sender == patient || msg.sender == therapist, \"Only booking participants can perform this action\");\n        _;\n    }\n    \n    modifier onlyPatient() {\n        require(msg.sender == patient, \"Only patient can perform this action\");\n        _;\n    }\n    \n    modifier onlyTherapist() {\n        require(msg.sender == therapist, \"Only therapist can perform this action\");\n        _;\n    }\n    \n    modifier notCancelled() {\n        require(!isCancelled, \"Appointment has been cancelled\");\n        _;\n    }\n    \n    constructor(\n        address _patient,\n        address _therapist,\n        string memory _appointmentDate,\n        string memory _appointmentTime,\n        string memory _anonymousId,\n        string memory _sessionType\n    ) {\n        patient = _patient;\n        therapist = _therapist;\n        appointmentDate = _appointmentDate;\n        appointmentTime = _appointmentTime;\n        anonymousId = _anonymousId;\n        sessionType = _sessionType;\n        createdAt = block.timestamp;\n    }\n    \n    function confirmByPatient() public onlyPatient notCancelled {\n        isConfirmedByPatient = true;\n        emit AppointmentConfirmedByPatient(patient);\n    }\n    \n    function confirmByTherapist() public onlyTherapist notCancelled {\n        isConfirmedByTherapist = true;\n        emit AppointmentConfirmedByTherapist(therapist);\n    }\n    \n    function cancelAppointment() public onlyParticipant {\n        require(!isConfirmedByPatient || !isConfirmedByTherapist, \"Cannot cancel confirmed appointment\");\n        isCancelled = true;\n        emit AppointmentCancelled(msg.sender);\n    }\n    \n    function getAppointmentDetails() public view returns (\n        address _patient,\n        address _therapist,\n        string memory _appointmentDate,\n        string memory _appointmentTime,\n        string memory _anonymousId,\n        string memory _sessionType,\n        bool _isConfirmedByPatient,\n        bool _isConfirmedByTherapist,\n        bool _isCancelled\n    ) {\n        return (\n            patient,\n            therapist,\n            appointmentDate,\n            appointmentTime,\n            anonymousId,\n            sessionType,\n            isConfirmedByPatient,\n            isConfirmedByTherapist,\n            isCancelled\n        );\n    }\n    \n    function isFullyConfirmed() public view returns (bool) {\n        return isConfirmedByPatient && isConfirmedByTherapist && !isCancelled;\n    }\n}\n",
  "sourcePath": "/Users/nikhilparajuli/Downloads/Nikhil Docs/Team IntroNep/Blockchain/contracts/BookingContract.sol",
  "compiler": {
    "name": "solc",
    "version": "0.8.21+commit.d9974bed.Emscripten.clang"
  },
  "schemaVersion": "3.4.16",
  "updatedAt": "2025-04-12T04:34:15.091Z",
  "devdoc": {
    "kind": "dev",
    "methods": {},
    "version": 1
  },
  "userdoc": {
    "kind": "user",
    "methods": {},
    "version": 1
  }
}