{
  "contractName": "MentalHealthBooking",
  "abi": [
    {
      "anonymous": false,
      "inputs": [
        {
          "indexed": false,
          "internalType": "uint256",
          "name": "id",
          "type": "uint256"
        },
        {
          "indexed": false,
          "internalType": "uint256",
          "name": "therapistId",
          "type": "uint256"
        },
        {
          "indexed": false,
          "internalType": "uint256",
          "name": "slotTime",
          "type": "uint256"
        }
      ],
      "name": "AppointmentBooked",
      "type": "event"
    },
    {
      "anonymous": false,
      "inputs": [
        {
          "indexed": false,
          "internalType": "uint256",
          "name": "id",
          "type": "uint256"
        },
        {
          "indexed": false,
          "internalType": "string",
          "name": "name",
          "type": "string"
        }
      ],
      "name": "TherapistAdded",
      "type": "event"
    },
    {
      "inputs": [
        {
          "internalType": "uint256",
          "name": "",
          "type": "uint256"
        }
      ],
      "name": "appointments",
      "outputs": [
        {
          "internalType": "uint256",
          "name": "id",
          "type": "uint256"
        },
        {
          "internalType": "uint256",
          "name": "therapistId",
          "type": "uint256"
        },
        {
          "internalType": "uint256",
          "name": "slotTime",
          "type": "uint256"
        },
        {
          "internalType": "string",
          "name": "sessionType",
          "type": "string"
        },
        {
          "internalType": "address",
          "name": "client",
          "type": "address"
        },
        {
          "internalType": "bool",
          "name": "isConfirmed",
          "type": "bool"
        }
      ],
      "stateMutability": "view",
      "type": "function"
    },
    {
      "inputs": [],
      "name": "nextAppointmentId",
      "outputs": [
        {
          "internalType": "uint256",
          "name": "",
          "type": "uint256"
        }
      ],
      "stateMutability": "view",
      "type": "function"
    },
    {
      "inputs": [],
      "name": "nextTherapistId",
      "outputs": [
        {
          "internalType": "uint256",
          "name": "",
          "type": "uint256"
        }
      ],
      "stateMutability": "view",
      "type": "function"
    },
    {
      "inputs": [
        {
          "internalType": "uint256",
          "name": "",
          "type": "uint256"
        }
      ],
      "name": "therapists",
      "outputs": [
        {
          "internalType": "uint256",
          "name": "id",
          "type": "uint256"
        },
        {
          "internalType": "string",
          "name": "name",
          "type": "string"
        },
        {
          "internalType": "string",
          "name": "specialization",
          "type": "string"
        },
        {
          "internalType": "uint256",
          "name": "fee",
          "type": "uint256"
        },
        {
          "internalType": "bool",
          "name": "isVerified",
          "type": "bool"
        }
      ],
      "stateMutability": "view",
      "type": "function"
    },
    {
      "inputs": [
        {
          "internalType": "string",
          "name": "_name",
          "type": "string"
        },
        {
          "internalType": "string",
          "name": "_specialization",
          "type": "string"
        },
        {
          "internalType": "uint256[]",
          "name": "_availableSlots",
          "type": "uint256[]"
        },
        {
          "internalType": "uint256",
          "name": "_fee",
          "type": "uint256"
        }
      ],
      "name": "addTherapist",
      "outputs": [],
      "stateMutability": "nonpayable",
      "type": "function"
    },
    {
      "inputs": [
        {
          "internalType": "uint256",
          "name": "_therapistId",
          "type": "uint256"
        },
        {
          "internalType": "uint256",
          "name": "_slotTime",
          "type": "uint256"
        },
        {
          "internalType": "string",
          "name": "_sessionType",
          "type": "string"
        }
      ],
      "name": "bookAppointment",
      "outputs": [],
      "stateMutability": "nonpayable",
      "type": "function"
    },
    {
      "inputs": [],
      "name": "getAllTherapists",
      "outputs": [
        {
          "components": [
            {
              "internalType": "uint256",
              "name": "id",
              "type": "uint256"
            },
            {
              "internalType": "string",
              "name": "name",
              "type": "string"
            },
            {
              "internalType": "string",
              "name": "specialization",
              "type": "string"
            },
            {
              "internalType": "uint256[]",
              "name": "availableSlots",
              "type": "uint256[]"
            },
            {
              "internalType": "uint256",
              "name": "fee",
              "type": "uint256"
            },
            {
              "internalType": "bool",
              "name": "isVerified",
              "type": "bool"
            }
          ],
          "internalType": "struct MentalHealthBooking.Therapist[]",
          "name": "",
          "type": "tuple[]"
        }
      ],
      "stateMutability": "view",
      "type": "function"
    },
    {
      "inputs": [
        {
          "internalType": "address",
          "name": "_client",
          "type": "address"
        }
      ],
      "name": "getClientAppointments",
      "outputs": [
        {
          "components": [
            {
              "internalType": "uint256",
              "name": "id",
              "type": "uint256"
            },
            {
              "internalType": "uint256",
              "name": "therapistId",
              "type": "uint256"
            },
            {
              "internalType": "uint256",
              "name": "slotTime",
              "type": "uint256"
            },
            {
              "internalType": "string",
              "name": "sessionType",
              "type": "string"
            },
            {
              "internalType": "address",
              "name": "client",
              "type": "address"
            },
            {
              "internalType": "bool",
              "name": "isConfirmed",
              "type": "bool"
            }
          ],
          "internalType": "struct MentalHealthBooking.Appointment[]",
          "name": "",
          "type": "tuple[]"
        }
      ],
      "stateMutability": "view",
      "type": "function"
    }
  ],
  "bytecode": "0x608060405260016002556001600355348015610019575f80fd5b50611ae1806100275f395ff3fe608060405234801561000f575f80fd5b5060043610610086575f3560e01c806372b1590d1161005957806372b1590d1461012d57806389dcc4a214610149578063e4cc4e4514610167578063fa27d8451461019757610086565b806312dc90131461008a57806324aeac6b146100bf57806325e040ee146100dd5780635ea473d214610111575b5f80fd5b6100a4600480360381019061009f9190610cf2565b6101b5565b6040516100b696959493929190610e0f565b60405180910390f35b6100c76102ae565b6040516100d491906110d2565b60405180910390f35b6100f760048036038101906100f29190610cf2565b6104ac565b6040516101089594939291906110f2565b60405180910390f35b61012b6004803603810190610126919061127d565b610604565b005b610147600480360381019061014291906113ad565b610850565b005b61015161097d565b60405161015e9190611465565b60405180910390f35b610181600480360381019061017c91906114a8565b610983565b60405161018e9190611623565b60405180910390f35b61019f610bf9565b6040516101ac9190611465565b60405180910390f35b600181815481106101c4575f80fd5b905f5260205f2090600502015f91509050805f0154908060010154908060020154908060030180546101f590611670565b80601f016020809104026020016040519081016040528092919081815260200182805461022190611670565b801561026c5780601f106102435761010080835404028352916020019161026c565b820191905f5260205f20905b81548152906001019060200180831161024f57829003601f168201915b505050505090806004015f9054906101000a900473ffffffffffffffffffffffffffffffffffffffff16908060040160149054906101000a900460ff16905086565b60605f805480602002602001604051908101604052809291908181526020015f905b828210156104a3578382905f5260205f2090600602016040518060c00160405290815f820154815260200160018201805461030a90611670565b80601f016020809104026020016040519081016040528092919081815260200182805461033690611670565b80156103815780601f1061035857610100808354040283529160200191610381565b820191905f5260205f20905b81548152906001019060200180831161036457829003601f168201915b5050505050815260200160028201805461039a90611670565b80601f01602080910402602001604051908101604052809291908181526020018280546103c690611670565b80156104115780601f106103e857610100808354040283529160200191610411565b820191905f5260205f20905b8154815290600101906020018083116103f457829003601f168201915b505050505081526020016003820180548060200260200160405190810160405280929190818152602001828054801561046757602002820191905f5260205f20905b815481526020019060010190808311610453575b5050505050815260200160048201548152602001600582015f9054906101000a900460ff161515151581525050815260200190600101906102d0565b50505050905090565b5f81815481106104ba575f80fd5b905f5260205f2090600602015f91509050805f0154908060010180546104df90611670565b80601f016020809104026020016040519081016040528092919081815260200182805461050b90611670565b80156105565780601f1061052d57610100808354040283529160200191610556565b820191905f5260205f20905b81548152906001019060200180831161053957829003601f168201915b50505050509080600201805461056b90611670565b80601f016020809104026020016040519081016040528092919081815260200182805461059790611670565b80156105e25780601f106105b9576101008083540402835291602001916105e2565b820191905f5260205f20905b8154815290600101906020018083116105c557829003601f168201915b505050505090806004015490806005015f9054906101000a900460ff16905085565b5f805b5f60018661061591906116cd565b8154811061062657610625611700565b5b905f5260205f209060060201600301805490508110156106ab57835f60018761064f91906116cd565b815481106106605761065f611700565b5b905f5260205f209060060201600301828154811061068157610680611700565b5b905f5260205f2001540361069857600191506106ab565b80806106a39061172d565b915050610607565b50806106ec576040517f08c379a00000000000000000000000000000000000000000000000000000000081526004016106e3906117be565b60405180910390fd5b60016040518060c0016040528060035481526020018681526020018581526020018481526020013373ffffffffffffffffffffffffffffffffffffffff16815260200160011515815250908060018154018082558091505060019003905f5260205f2090600502015f909190919091505f820151815f01556020820151816001015560408201518160020155606082015181600301908161078d9190611979565b506080820151816004015f6101000a81548173ffffffffffffffffffffffffffffffffffffffff021916908373ffffffffffffffffffffffffffffffffffffffff16021790555060a08201518160040160146101000a81548160ff02191690831515021790555050507fbab5dd534562101ec65ddbf2ffb9d652156a761c94ab7f4362cba2bbc03eee96600354858560405161082b93929190611a48565b60405180910390a160035f8154809291906108459061172d565b919050555050505050565b5f6040518060c00160405280600254815260200186815260200185815260200184815260200183815260200160011515815250908060018154018082558091505060019003905f5260205f2090600602015f909190919091505f820151815f015560208201518160010190816108c69190611979565b5060408201518160020190816108dc9190611979565b5060608201518160030190805190602001906108f9929190610bff565b506080820151816004015560a0820151816005015f6101000a81548160ff02191690831515021790555050507f7a3c35256ab23a518a303efca5233373c97eb62f47a0c021bf2e3d954d24631960025485604051610958929190611a7d565b60405180910390a160025f8154809291906109729061172d565b919050555050505050565b60035481565b60605f60018054905067ffffffffffffffff8111156109a5576109a4611159565b5b6040519080825280602002602001820160405280156109de57816020015b6109cb610c4a565b8152602001906001900390816109c35790505b5090505f805b600180549050811015610bee578473ffffffffffffffffffffffffffffffffffffffff1660018281548110610a1c57610a1b611700565b5b905f5260205f2090600502016004015f9054906101000a900473ffffffffffffffffffffffffffffffffffffffff1673ffffffffffffffffffffffffffffffffffffffff1603610bdb5760018181548110610a7a57610a79611700565b5b905f5260205f2090600502016040518060c00160405290815f82015481526020016001820154815260200160028201548152602001600382018054610abe90611670565b80601f0160208091040260200160405190810160405280929190818152602001828054610aea90611670565b8015610b355780601f10610b0c57610100808354040283529160200191610b35565b820191905f5260205f20905b815481529060010190602001808311610b1857829003601f168201915b50505050508152602001600482015f9054906101000a900473ffffffffffffffffffffffffffffffffffffffff1673ffffffffffffffffffffffffffffffffffffffff1673ffffffffffffffffffffffffffffffffffffffff1681526020016004820160149054906101000a900460ff161515151581525050838381518110610bc157610bc0611700565b5b60200260200101819052508180610bd79061172d565b9250505b8080610be69061172d565b9150506109e4565b508192505050919050565b60025481565b828054828255905f5260205f20908101928215610c39579160200282015b82811115610c38578251825591602001919060010190610c1d565b5b509050610c469190610c93565b5090565b6040518060c001604052805f81526020015f81526020015f8152602001606081526020015f73ffffffffffffffffffffffffffffffffffffffff1681526020015f151581525090565b5b80821115610caa575f815f905550600101610c94565b5090565b5f604051905090565b5f80fd5b5f80fd5b5f819050919050565b610cd181610cbf565b8114610cdb575f80fd5b50565b5f81359050610cec81610cc8565b92915050565b5f60208284031215610d0757610d06610cb7565b5b5f610d1484828501610cde565b91505092915050565b610d2681610cbf565b82525050565b5f81519050919050565b5f82825260208201905092915050565b5f5b83811015610d63578082015181840152602081019050610d48565b5f8484015250505050565b5f601f19601f8301169050919050565b5f610d8882610d2c565b610d928185610d36565b9350610da2818560208601610d46565b610dab81610d6e565b840191505092915050565b5f73ffffffffffffffffffffffffffffffffffffffff82169050919050565b5f610ddf82610db6565b9050919050565b610def81610dd5565b82525050565b5f8115159050919050565b610e0981610df5565b82525050565b5f60c082019050610e225f830189610d1d565b610e2f6020830188610d1d565b610e3c6040830187610d1d565b8181036060830152610e4e8186610d7e565b9050610e5d6080830185610de6565b610e6a60a0830184610e00565b979650505050505050565b5f81519050919050565b5f82825260208201905092915050565b5f819050602082019050919050565b610ea781610cbf565b82525050565b5f82825260208201905092915050565b5f610ec782610d2c565b610ed18185610ead565b9350610ee1818560208601610d46565b610eea81610d6e565b840191505092915050565b5f81519050919050565b5f82825260208201905092915050565b5f819050602082019050919050565b5f610f298383610e9e565b60208301905092915050565b5f602082019050919050565b5f610f4b82610ef5565b610f558185610eff565b9350610f6083610f0f565b805f5b83811015610f90578151610f778882610f1e565b9750610f8283610f35565b925050600181019050610f63565b5085935050505092915050565b610fa681610df5565b82525050565b5f60c083015f830151610fc15f860182610e9e565b5060208301518482036020860152610fd98282610ebd565b91505060408301518482036040860152610ff38282610ebd565b9150506060830151848203606086015261100d8282610f41565b91505060808301516110226080860182610e9e565b5060a083015161103560a0860182610f9d565b508091505092915050565b5f61104b8383610fac565b905092915050565b5f602082019050919050565b5f61106982610e75565b6110738185610e7f565b93508360208202850161108585610e8f565b805f5b858110156110c057848403895281516110a18582611040565b94506110ac83611053565b925060208a01995050600181019050611088565b50829750879550505050505092915050565b5f6020820190508181035f8301526110ea818461105f565b905092915050565b5f60a0820190506111055f830188610d1d565b81810360208301526111178187610d7e565b9050818103604083015261112b8186610d7e565b905061113a6060830185610d1d565b6111476080830184610e00565b9695505050505050565b5f80fd5b5f80fd5b7f4e487b71000000000000000000000000000000000000000000000000000000005f52604160045260245ffd5b61118f82610d6e565b810181811067ffffffffffffffff821117156111ae576111ad611159565b5b80604052505050565b5f6111c0610cae565b90506111cc8282611186565b919050565b5f67ffffffffffffffff8211156111eb576111ea611159565b5b6111f482610d6e565b9050602081019050919050565b828183375f83830152505050565b5f61122161121c846111d1565b6111b7565b90508281526020810184848401111561123d5761123c611155565b5b611248848285611201565b509392505050565b5f82601f83011261126457611263611151565b5b813561127484826020860161120f565b91505092915050565b5f805f6060848603121561129457611293610cb7565b5b5f6112a186828701610cde565b93505060206112b286828701610cde565b925050604084013567ffffffffffffffff8111156112d3576112d2610cbb565b5b6112df86828701611250565b9150509250925092565b5f67ffffffffffffffff82111561130357611302611159565b5b602082029050602081019050919050565b5f80fd5b5f61132a611325846112e9565b6111b7565b9050808382526020820190506020840283018581111561134d5761134c611314565b5b835b8181101561137657806113628882610cde565b84526020840193505060208101905061134f565b5050509392505050565b5f82601f83011261139457611393611151565b5b81356113a4848260208601611318565b91505092915050565b5f805f80608085870312156113c5576113c4610cb7565b5b5f85013567ffffffffffffffff8111156113e2576113e1610cbb565b5b6113ee87828801611250565b945050602085013567ffffffffffffffff81111561140f5761140e610cbb565b5b61141b87828801611250565b935050604085013567ffffffffffffffff81111561143c5761143b610cbb565b5b61144887828801611380565b925050606061145987828801610cde565b91505092959194509250565b5f6020820190506114785f830184610d1d565b92915050565b61148781610dd5565b8114611491575f80fd5b50565b5f813590506114a28161147e565b92915050565b5f602082840312156114bd576114bc610cb7565b5b5f6114ca84828501611494565b91505092915050565b5f81519050919050565b5f82825260208201905092915050565b5f819050602082019050919050565b61150581610dd5565b82525050565b5f60c083015f8301516115205f860182610e9e565b5060208301516115336020860182610e9e565b5060408301516115466040860182610e9e565b506060830151848203606086015261155e8282610ebd565b915050608083015161157360808601826114fc565b5060a083015161158660a0860182610f9d565b508091505092915050565b5f61159c838361150b565b905092915050565b5f602082019050919050565b5f6115ba826114d3565b6115c481856114dd565b9350836020820285016115d6856114ed565b805f5b8581101561161157848403895281516115f28582611591565b94506115fd836115a4565b925060208a019950506001810190506115d9565b50829750879550505050505092915050565b5f6020820190508181035f83015261163b81846115b0565b905092915050565b7f4e487b71000000000000000000000000000000000000000000000000000000005f52602260045260245ffd5b5f600282049050600182168061168757607f821691505b60208210810361169a57611699611643565b5b50919050565b7f4e487b71000000000000000000000000000000000000000000000000000000005f52601160045260245ffd5b5f6116d782610cbf565b91506116e283610cbf565b92508282039050818111156116fa576116f96116a0565b5b92915050565b7f4e487b71000000000000000000000000000000000000000000000000000000005f52603260045260245ffd5b5f61173782610cbf565b91507fffffffffffffffffffffffffffffffffffffffffffffffffffffffffffffffff8203611769576117686116a0565b5b600182019050919050565b7f536c6f74206e6f7420617661696c61626c6500000000000000000000000000005f82015250565b5f6117a8601283610d36565b91506117b382611774565b602082019050919050565b5f6020820190508181035f8301526117d58161179c565b9050919050565b5f819050815f5260205f209050919050565b5f6020601f8301049050919050565b5f82821b905092915050565b5f600883026118387fffffffffffffffffffffffffffffffffffffffffffffffffffffffffffffffff826117fd565b61184286836117fd565b95508019841693508086168417925050509392505050565b5f819050919050565b5f61187d61187861187384610cbf565b61185a565b610cbf565b9050919050565b5f819050919050565b61189683611863565b6118aa6118a282611884565b848454611809565b825550505050565b5f90565b6118be6118b2565b6118c981848461188d565b505050565b5b818110156118ec576118e15f826118b6565b6001810190506118cf565b5050565b601f82111561193157611902816117dc565b61190b846117ee565b8101602085101561191a578190505b61192e611926856117ee565b8301826118ce565b50505b505050565b5f82821c905092915050565b5f6119515f1984600802611936565b1980831691505092915050565b5f6119698383611942565b9150826002028217905092915050565b61198282610d2c565b67ffffffffffffffff81111561199b5761199a611159565b5b6119a58254611670565b6119b08282856118f0565b5f60209050601f8311600181146119e1575f84156119cf578287015190505b6119d9858261195e565b865550611a40565b601f1984166119ef866117dc565b5f5b82811015611a16578489015182556001820191506020850194506020810190506119f1565b86831015611a335784890151611a2f601f891682611942565b8355505b6001600288020188555050505b505050505050565b5f606082019050611a5b5f830186610d1d565b611a686020830185610d1d565b611a756040830184610d1d565b949350505050565b5f604082019050611a905f830185610d1d565b8181036020830152611aa28184610d7e565b9050939250505056fea2646970667358221220dffaec9ef5374005eaa3ecceceb8d439fcb243b5ccaa2a63fa06da5788b85cd164736f6c63430008150033",
  "immutableReferences": {},
  "source": "// SPDX-License-Identifier: MIT\npragma solidity ^0.8.0;\n\ncontract MentalHealthBooking {\n    // Structs (custom data types)\n    struct Therapist {\n        uint id;\n        string name;\n        string specialization;\n        uint[] availableSlots; // Unix timestamps\n        uint fee;\n        bool isVerified;\n    }\n\n    struct Appointment {\n        uint id;\n        uint therapistId;\n        uint slotTime;\n        string sessionType; // \"Individual\", \"Group\", \"EAP\"\n        address client; // Anonymous ID (if needed, use a hash)\n        bool isConfirmed;\n    }\n\n    // State Variables (stored on blockchain)\n    Therapist[] public therapists;\n    Appointment[] public appointments;\n    uint public nextTherapistId = 1;\n    uint public nextAppointmentId = 1;\n\n    // Events (for frontend notifications)\n    event TherapistAdded(uint id, string name);\n    event AppointmentBooked(uint id, uint therapistId, uint slotTime);\n\n    // Add a new therapist (only admin in future)\n    function addTherapist(\n        string memory _name,\n        string memory _specialization,\n        uint[] memory _availableSlots,\n        uint _fee\n    ) public {\n        therapists.push(\n            Therapist({\n                id: nextTherapistId,\n                name: _name,\n                specialization: _specialization,\n                availableSlots: _availableSlots,\n                fee: _fee,\n                isVerified: true\n            })\n        );\n        emit TherapistAdded(nextTherapistId, _name);\n        nextTherapistId++;\n    }\n\n    // Book an appointment\n    function bookAppointment(\n        uint _therapistId,\n        uint _slotTime,\n        string memory _sessionType\n    ) public {\n        // Check if slot is available (simplified for now)\n        bool isSlotAvailable = false;\n        for (uint i = 0; i < therapists[_therapistId - 1].availableSlots.length; i++) {\n            if (therapists[_therapistId - 1].availableSlots[i] == _slotTime) {\n                isSlotAvailable = true;\n                break;\n            }\n        }\n        require(isSlotAvailable, \"Slot not available\");\n\n        // Create appointment\n        appointments.push(\n            Appointment({\n                id: nextAppointmentId,\n                therapistId: _therapistId,\n                slotTime: _slotTime,\n                sessionType: _sessionType,\n                client: msg.sender, // Client's wallet address (or anonymized later)\n                isConfirmed: true\n            })\n        );\n\n        emit AppointmentBooked(nextAppointmentId, _therapistId, _slotTime);\n        nextAppointmentId++;\n    }\n\n    // Get all therapists (for frontend display)\n    function getAllTherapists() public view returns (Therapist[] memory) {\n        return therapists;\n    }\n\n    // Get all appointments for a client\n    function getClientAppointments(address _client) public view returns (Appointment[] memory) {\n        Appointment[] memory result = new Appointment[](appointments.length);\n        uint counter = 0;\n        for (uint i = 0; i < appointments.length; i++) {\n            if (appointments[i].client == _client) {\n                result[counter] = appointments[i];\n                counter++;\n            }\n        }\n        return result;\n    }\n}",
  "sourcePath": "/Users/nikhilparajuli/Downloads/Nikhil Docs/Team IntroNep/Blockchain/contracts/MentalHealthBooking.sol",
  "compiler": {
    "name": "solc",
    "version": "0.8.21+commit.d9974bed.Emscripten.clang"
  },
  "schemaVersion": "3.4.16",
  "updatedAt": "2025-04-11T15:12:50.282Z",
  "devdoc": {
    "kind": "dev",
    "methods": {},
    "version": 1
  },
  "userdoc": {
    "kind": "user",
    "methods": {},
    "version": 1
  }
}