{
  "contractName": "TherapistRegistry",
  "abi": [
    {
      "inputs": [],
      "stateMutability": "nonpayable",
      "type": "constructor"
    },
    {
      "anonymous": false,
      "inputs": [
        {
          "indexed": true,
          "internalType": "address",
          "name": "therapistAddress",
          "type": "address"
        },
        {
          "indexed": false,
          "internalType": "string",
          "name": "name",
          "type": "string"
        }
      ],
      "name": "TherapistRegistered",
      "type": "event"
    },
    {
      "anonymous": false,
      "inputs": [
        {
          "indexed": true,
          "internalType": "address",
          "name": "therapistAddress",
          "type": "address"
        }
      ],
      "name": "TherapistVerified",
      "type": "event"
    },
    {
      "inputs": [],
      "name": "owner",
      "outputs": [
        {
          "internalType": "address",
          "name": "",
          "type": "address"
        }
      ],
      "stateMutability": "view",
      "type": "function"
    },
    {
      "inputs": [
        {
          "internalType": "uint256",
          "name": "",
          "type": "uint256"
        }
      ],
      "name": "therapistAddresses",
      "outputs": [
        {
          "internalType": "address",
          "name": "",
          "type": "address"
        }
      ],
      "stateMutability": "view",
      "type": "function"
    },
    {
      "inputs": [
        {
          "internalType": "address",
          "name": "",
          "type": "address"
        }
      ],
      "name": "therapists",
      "outputs": [
        {
          "internalType": "string",
          "name": "name",
          "type": "string"
        },
        {
          "internalType": "string",
          "name": "specialization",
          "type": "string"
        },
        {
          "internalType": "bool",
          "name": "isVerified",
          "type": "bool"
        },
        {
          "internalType": "address",
          "name": "walletAddress",
          "type": "address"
        }
      ],
      "stateMutability": "view",
      "type": "function"
    },
    {
      "inputs": [
        {
          "internalType": "string",
          "name": "_name",
          "type": "string"
        },
        {
          "internalType": "string",
          "name": "_specialization",
          "type": "string"
        }
      ],
      "name": "registerTherapist",
      "outputs": [],
      "stateMutability": "nonpayable",
      "type": "function"
    },
    {
      "inputs": [
        {
          "internalType": "address",
          "name": "_therapistAddress",
          "type": "address"
        }
      ],
      "name": "verifyTherapist",
      "outputs": [],
      "stateMutability": "nonpayable",
      "type": "function"
    },
    {
      "inputs": [
        {
          "internalType": "address",
          "name": "_therapistAddress",
          "type": "address"
        }
      ],
      "name": "isTherapistVerified",
      "outputs": [
        {
          "internalType": "bool",
          "name": "",
          "type": "bool"
        }
      ],
      "stateMutability": "view",
      "type": "function"
    },
    {
      "inputs": [],
      "name": "getTherapistCount",
      "outputs": [
        {
          "internalType": "uint256",
          "name": "",
          "type": "uint256"
        }
      ],
      "stateMutability": "view",
      "type": "function"
    },
    {
      "inputs": [
        {
          "internalType": "uint256",
          "name": "_index",
          "type": "uint256"
        }
      ],
      "name": "getTherapistByIndex",
      "outputs": [
        {
          "internalType": "address",
          "name": "walletAddress",
          "type": "address"
        },
        {
          "internalType": "string",
          "name": "name",
          "type": "string"
        },
        {
          "internalType": "string",
          "name": "specialization",
          "type": "string"
        },
        {
          "internalType": "bool",
          "name": "isVerified",
          "type": "bool"
        }
      ],
      "stateMutability": "view",
      "type": "function"
    },
    {
      "inputs": [],
      "name": "getVerifiedTherapists",
      "outputs": [
        {
          "internalType": "address[]",
          "name": "",
          "type": "address[]"
        }
      ],
      "stateMutability": "view",
      "type": "function"
    }
  ],
  "bytecode": "0x608060405234801561000f575f80fd5b503360025f6101000a81548173ffffffffffffffffffffffffffffffffffffffff021916908373ffffffffffffffffffffffffffffffffffffffff160217905550611a068061005d5f395ff3fe608060405234801561000f575f80fd5b5060043610610091575f3560e01c80638412a87e116100645780638412a87e146101495780638da5cb5b14610165578063c73e520314610183578063ea71e6dc146101b3578063f5c332d3146101d157610091565b80631e53a3c0146100955780632ee4e59f146100c857806356439528146100e6578063824313e514610116575b5f80fd5b6100af60048036038101906100aa9190610e70565b6101ed565b6040516100bf9493929190610f7e565b60405180910390f35b6100d0610419565b6040516100dd9190610fde565b60405180910390f35b61010060048036038101906100fb9190610e70565b610425565b60405161010d9190610ff7565b60405180910390f35b610130600480360381019061012b919061103a565b610460565b6040516101409493929190611065565b60405180910390f35b610163600480360381019061015e91906111e2565b6105c3565b005b61016d6108d0565b60405161017a9190610ff7565b60405180910390f35b61019d6004803603810190610198919061103a565b6108f5565b6040516101aa9190611258565b60405180910390f35b6101bb610949565b6040516101c89190611328565b60405180910390f35b6101eb60048036038101906101e6919061103a565b610ba7565b005b5f6060805f6001805490508510610239576040517f08c379a000000000000000000000000000000000000000000000000000000000815260040161023090611392565b60405180910390fd5b5f6001868154811061024e5761024d6113b0565b5b905f5260205f20015f9054906101000a900473ffffffffffffffffffffffffffffffffffffffff1690505f805f8373ffffffffffffffffffffffffffffffffffffffff1673ffffffffffffffffffffffffffffffffffffffff1681526020019081526020015f2090508060020160019054906101000a900473ffffffffffffffffffffffffffffffffffffffff16815f0182600101836002015f9054906101000a900460ff168280546103009061140a565b80601f016020809104026020016040519081016040528092919081815260200182805461032c9061140a565b80156103775780601f1061034e57610100808354040283529160200191610377565b820191905f5260205f20905b81548152906001019060200180831161035a57829003601f168201915b5050505050925081805461038a9061140a565b80601f01602080910402602001604051908101604052809291908181526020018280546103b69061140a565b80156104015780601f106103d857610100808354040283529160200191610401565b820191905f5260205f20905b8154815290600101906020018083116103e457829003601f168201915b50505050509150955095509550955050509193509193565b5f600180549050905090565b60018181548110610434575f80fd5b905f5260205f20015f915054906101000a900473ffffffffffffffffffffffffffffffffffffffff1681565b5f602052805f5260405f205f91509050805f01805461047e9061140a565b80601f01602080910402602001604051908101604052809291908181526020018280546104aa9061140a565b80156104f55780601f106104cc576101008083540402835291602001916104f5565b820191905f5260205f20905b8154815290600101906020018083116104d857829003601f168201915b50505050509080600101805461050a9061140a565b80601f01602080910402602001604051908101604052809291908181526020018280546105369061140a565b80156105815780601f1061055857610100808354040283529160200191610581565b820191905f5260205f20905b81548152906001019060200180831161056457829003601f168201915b505050505090806002015f9054906101000a900460ff16908060020160019054906101000a900473ffffffffffffffffffffffffffffffffffffffff16905084565b5f825111610606576040517f08c379a00000000000000000000000000000000000000000000000000000000081526004016105fd90611484565b60405180910390fd5b5f815111610649576040517f08c379a0000000000000000000000000000000000000000000000000000000008152600401610640906114ec565b60405180910390fd5b5f73ffffffffffffffffffffffffffffffffffffffff165f803373ffffffffffffffffffffffffffffffffffffffff1673ffffffffffffffffffffffffffffffffffffffff1681526020019081526020015f2060020160019054906101000a900473ffffffffffffffffffffffffffffffffffffffff1673ffffffffffffffffffffffffffffffffffffffff1614610716576040517f08c379a000000000000000000000000000000000000000000000000000000000815260040161070d90611554565b60405180910390fd5b60405180608001604052808381526020018281526020015f151581526020013373ffffffffffffffffffffffffffffffffffffffff168152505f803373ffffffffffffffffffffffffffffffffffffffff1673ffffffffffffffffffffffffffffffffffffffff1681526020019081526020015f205f820151815f01908161079e919061170f565b5060208201518160010190816107b4919061170f565b506040820151816002015f6101000a81548160ff02191690831515021790555060608201518160020160016101000a81548173ffffffffffffffffffffffffffffffffffffffff021916908373ffffffffffffffffffffffffffffffffffffffff160217905550905050600133908060018154018082558091505060019003905f5260205f20015f9091909190916101000a81548173ffffffffffffffffffffffffffffffffffffffff021916908373ffffffffffffffffffffffffffffffffffffffff1602179055503373ffffffffffffffffffffffffffffffffffffffff167f951541f36062ba13dd22808af67f769bf6942ab3df1c89bb4b9625c9a3192c8d836040516108c491906117de565b60405180910390a25050565b60025f9054906101000a900473ffffffffffffffffffffffffffffffffffffffff1681565b5f805f8373ffffffffffffffffffffffffffffffffffffffff1673ffffffffffffffffffffffffffffffffffffffff1681526020019081526020015f206002015f9054906101000a900460ff169050919050565b60605f805b600180549050811015610a09575f8060018381548110610971576109706113b0565b5b905f5260205f20015f9054906101000a900473ffffffffffffffffffffffffffffffffffffffff1673ffffffffffffffffffffffffffffffffffffffff1673ffffffffffffffffffffffffffffffffffffffff1681526020019081526020015f206002015f9054906101000a900460ff16156109f65781806109f29061182b565b9250505b8080610a019061182b565b91505061094e565b505f8167ffffffffffffffff811115610a2557610a246110be565b5b604051908082528060200260200182016040528015610a535781602001602082028036833780820191505090505b5090505f805b600180549050811015610b9d575f8060018381548110610a7c57610a7b6113b0565b5b905f5260205f20015f9054906101000a900473ffffffffffffffffffffffffffffffffffffffff1673ffffffffffffffffffffffffffffffffffffffff1673ffffffffffffffffffffffffffffffffffffffff1681526020019081526020015f206002015f9054906101000a900460ff1615610b8a5760018181548110610b0657610b056113b0565b5b905f5260205f20015f9054906101000a900473ffffffffffffffffffffffffffffffffffffffff16838381518110610b4157610b406113b0565b5b602002602001019073ffffffffffffffffffffffffffffffffffffffff16908173ffffffffffffffffffffffffffffffffffffffff16815250508180610b869061182b565b9250505b8080610b959061182b565b915050610a59565b5081935050505090565b60025f9054906101000a900473ffffffffffffffffffffffffffffffffffffffff1673ffffffffffffffffffffffffffffffffffffffff163373ffffffffffffffffffffffffffffffffffffffff1614610c36576040517f08c379a0000000000000000000000000000000000000000000000000000000008152600401610c2d906118e2565b60405180910390fd5b5f73ffffffffffffffffffffffffffffffffffffffff165f808373ffffffffffffffffffffffffffffffffffffffff1673ffffffffffffffffffffffffffffffffffffffff1681526020019081526020015f2060020160019054906101000a900473ffffffffffffffffffffffffffffffffffffffff1673ffffffffffffffffffffffffffffffffffffffff1603610d03576040517f08c379a0000000000000000000000000000000000000000000000000000000008152600401610cfa9061194a565b60405180910390fd5b5f808273ffffffffffffffffffffffffffffffffffffffff1673ffffffffffffffffffffffffffffffffffffffff1681526020019081526020015f206002015f9054906101000a900460ff1615610d8f576040517f08c379a0000000000000000000000000000000000000000000000000000000008152600401610d86906119b2565b60405180910390fd5b60015f808373ffffffffffffffffffffffffffffffffffffffff1673ffffffffffffffffffffffffffffffffffffffff1681526020019081526020015f206002015f6101000a81548160ff0219169083151502179055508073ffffffffffffffffffffffffffffffffffffffff167f10d74b0e17311d43c540b259fbd84d947092abc3bbd22026a13fead93dd1828c60405160405180910390a250565b5f604051905090565b5f80fd5b5f80fd5b5f819050919050565b610e4f81610e3d565b8114610e59575f80fd5b50565b5f81359050610e6a81610e46565b92915050565b5f60208284031215610e8557610e84610e35565b5b5f610e9284828501610e5c565b91505092915050565b5f73ffffffffffffffffffffffffffffffffffffffff82169050919050565b5f610ec482610e9b565b9050919050565b610ed481610eba565b82525050565b5f81519050919050565b5f82825260208201905092915050565b5f5b83811015610f11578082015181840152602081019050610ef6565b5f8484015250505050565b5f601f19601f8301169050919050565b5f610f3682610eda565b610f408185610ee4565b9350610f50818560208601610ef4565b610f5981610f1c565b840191505092915050565b5f8115159050919050565b610f7881610f64565b82525050565b5f608082019050610f915f830187610ecb565b8181036020830152610fa38186610f2c565b90508181036040830152610fb78185610f2c565b9050610fc66060830184610f6f565b95945050505050565b610fd881610e3d565b82525050565b5f602082019050610ff15f830184610fcf565b92915050565b5f60208201905061100a5f830184610ecb565b92915050565b61101981610eba565b8114611023575f80fd5b50565b5f8135905061103481611010565b92915050565b5f6020828403121561104f5761104e610e35565b5b5f61105c84828501611026565b91505092915050565b5f6080820190508181035f83015261107d8187610f2c565b905081810360208301526110918186610f2c565b90506110a06040830185610f6f565b6110ad6060830184610ecb565b95945050505050565b5f80fd5b5f80fd5b7f4e487b71000000000000000000000000000000000000000000000000000000005f52604160045260245ffd5b6110f482610f1c565b810181811067ffffffffffffffff82111715611113576111126110be565b5b80604052505050565b5f611125610e2c565b905061113182826110eb565b919050565b5f67ffffffffffffffff8211156111505761114f6110be565b5b61115982610f1c565b9050602081019050919050565b828183375f83830152505050565b5f61118661118184611136565b61111c565b9050828152602081018484840111156111a2576111a16110ba565b5b6111ad848285611166565b509392505050565b5f82601f8301126111c9576111c86110b6565b5b81356111d9848260208601611174565b91505092915050565b5f80604083850312156111f8576111f7610e35565b5b5f83013567ffffffffffffffff81111561121557611214610e39565b5b611221858286016111b5565b925050602083013567ffffffffffffffff81111561124257611241610e39565b5b61124e858286016111b5565b9150509250929050565b5f60208201905061126b5f830184610f6f565b92915050565b5f81519050919050565b5f82825260208201905092915050565b5f819050602082019050919050565b6112a381610eba565b82525050565b5f6112b4838361129a565b60208301905092915050565b5f602082019050919050565b5f6112d682611271565b6112e0818561127b565b93506112eb8361128b565b805f5b8381101561131b57815161130288826112a9565b975061130d836112c0565b9250506001810190506112ee565b5085935050505092915050565b5f6020820190508181035f83015261134081846112cc565b905092915050565b7f496e646578206f7574206f6620626f756e6473000000000000000000000000005f82015250565b5f61137c601383610ee4565b915061138782611348565b602082019050919050565b5f6020820190508181035f8301526113a981611370565b9050919050565b7f4e487b71000000000000000000000000000000000000000000000000000000005f52603260045260245ffd5b7f4e487b71000000000000000000000000000000000000000000000000000000005f52602260045260245ffd5b5f600282049050600182168061142157607f821691505b602082108103611434576114336113dd565b5b50919050565b7f4e616d652063616e6e6f7420626520656d7074790000000000000000000000005f82015250565b5f61146e601483610ee4565b91506114798261143a565b602082019050919050565b5f6020820190508181035f83015261149b81611462565b9050919050565b7f5370656369616c697a6174696f6e2063616e6e6f7420626520656d70747900005f82015250565b5f6114d6601e83610ee4565b91506114e1826114a2565b602082019050919050565b5f6020820190508181035f830152611503816114ca565b9050919050565b7f54686572617069737420616c72656164792072656769737465726564000000005f82015250565b5f61153e601c83610ee4565b91506115498261150a565b602082019050919050565b5f6020820190508181035f83015261156b81611532565b9050919050565b5f819050815f5260205f209050919050565b5f6020601f8301049050919050565b5f82821b905092915050565b5f600883026115ce7fffffffffffffffffffffffffffffffffffffffffffffffffffffffffffffffff82611593565b6115d88683611593565b95508019841693508086168417925050509392505050565b5f819050919050565b5f61161361160e61160984610e3d565b6115f0565b610e3d565b9050919050565b5f819050919050565b61162c836115f9565b6116406116388261161a565b84845461159f565b825550505050565b5f90565b611654611648565b61165f818484611623565b505050565b5b81811015611682576116775f8261164c565b600181019050611665565b5050565b601f8211156116c75761169881611572565b6116a184611584565b810160208510156116b0578190505b6116c46116bc85611584565b830182611664565b50505b505050565b5f82821c905092915050565b5f6116e75f19846008026116cc565b1980831691505092915050565b5f6116ff83836116d8565b9150826002028217905092915050565b61171882610eda565b67ffffffffffffffff811115611731576117306110be565b5b61173b825461140a565b611746828285611686565b5f60209050601f831160018114611777575f8415611765578287015190505b61176f85826116f4565b8655506117d6565b601f19841661178586611572565b5f5b828110156117ac57848901518255600182019150602085019450602081019050611787565b868310156117c957848901516117c5601f8916826116d8565b8355505b6001600288020188555050505b505050505050565b5f6020820190508181035f8301526117f68184610f2c565b905092915050565b7f4e487b71000000000000000000000000000000000000000000000000000000005f52601160045260245ffd5b5f61183582610e3d565b91507fffffffffffffffffffffffffffffffffffffffffffffffffffffffffffffffff8203611867576118666117fe565b5b600182019050919050565b7f4f6e6c79206f776e65722063616e20706572666f726d207468697320616374695f8201527f6f6e000000000000000000000000000000000000000000000000000000000000602082015250565b5f6118cc602283610ee4565b91506118d782611872565b604082019050919050565b5f6020820190508181035f8301526118f9816118c0565b9050919050565b7f546865726170697374206e6f74207265676973746572656400000000000000005f82015250565b5f611934601883610ee4565b915061193f82611900565b602082019050919050565b5f6020820190508181035f83015261196181611928565b9050919050565b7f54686572617069737420616c72656164792076657269666965640000000000005f82015250565b5f61199c601a83610ee4565b91506119a782611968565b602082019050919050565b5f6020820190508181035f8301526119c981611990565b905091905056fea2646970667358221220138c5cc99cbbbf8572de403a2a979ae1c034dc9d9df76e04f8e90a913ea35ae464736f6c63430008150033",
  "immutableReferences": {},
  "source": "\n// SPDX-License-Identifier: MIT\npragma solidity ^0.8.19;\n\ncontract TherapistRegistry {\n    struct Therapist {\n        string name;\n        string specialization;\n        bool isVerified;\n        address walletAddress;\n    }\n    \n    mapping(address => Therapist) public therapists;\n    address[] public therapistAddresses;\n    address public owner;\n    \n    event TherapistRegistered(address indexed therapistAddress, string name);\n    event TherapistVerified(address indexed therapistAddress);\n    \n    modifier onlyOwner() {\n        require(msg.sender == owner, \"Only owner can perform this action\");\n        _;\n    }\n    \n    constructor() {\n        owner = msg.sender;\n    }\n    \n    function registerTherapist(string memory _name, string memory _specialization) public {\n        require(bytes(_name).length > 0, \"Name cannot be empty\");\n        require(bytes(_specialization).length > 0, \"Specialization cannot be empty\");\n        require(therapists[msg.sender].walletAddress == address(0), \"Therapist already registered\");\n        \n        therapists[msg.sender] = Therapist({\n            name: _name,\n            specialization: _specialization,\n            isVerified: false,\n            walletAddress: msg.sender\n        });\n        \n        therapistAddresses.push(msg.sender);\n        emit TherapistRegistered(msg.sender, _name);\n    }\n    \n    function verifyTherapist(address _therapistAddress) public onlyOwner {\n        require(therapists[_therapistAddress].walletAddress != address(0), \"Therapist not registered\");\n        require(!therapists[_therapistAddress].isVerified, \"Therapist already verified\");\n        \n        therapists[_therapistAddress].isVerified = true;\n        emit TherapistVerified(_therapistAddress);\n    }\n    \n    function isTherapistVerified(address _therapistAddress) public view returns (bool) {\n        return therapists[_therapistAddress].isVerified;\n    }\n    \n    function getTherapistCount() public view returns (uint256) {\n        return therapistAddresses.length;\n    }\n    \n    function getTherapistByIndex(uint256 _index) public view returns (\n        address walletAddress,\n        string memory name,\n        string memory specialization,\n        bool isVerified\n    ) {\n        require(_index < therapistAddresses.length, \"Index out of bounds\");\n        address therapistAddress = therapistAddresses[_index];\n        Therapist storage therapist = therapists[therapistAddress];\n        \n        return (\n            therapist.walletAddress,\n            therapist.name,\n            therapist.specialization,\n            therapist.isVerified\n        );\n    }\n    \n    function getVerifiedTherapists() public view returns (address[] memory) {\n        uint256 verifiedCount = 0;\n        \n        // Count verified therapists\n        for (uint256 i = 0; i < therapistAddresses.length; i++) {\n            if (therapists[therapistAddresses[i]].isVerified) {\n                verifiedCount++;\n            }\n        }\n        \n        // Create array of verified therapists\n        address[] memory verifiedTherapists = new address[](verifiedCount);\n        uint256 currentIndex = 0;\n        \n        for (uint256 i = 0; i < therapistAddresses.length; i++) {\n            if (therapists[therapistAddresses[i]].isVerified) {\n                verifiedTherapists[currentIndex] = therapistAddresses[i];\n                currentIndex++;\n            }\n        }\n        \n        return verifiedTherapists;\n    }\n}\n",
  "sourcePath": "/Users/nikhilparajuli/Downloads/Nikhil Docs/Team IntroNep/Blockchain/contracts/TherapistRegistry.sol",
  "compiler": {
    "name": "solc",
    "version": "0.8.21+commit.d9974bed.Emscripten.clang"
  },
  "schemaVersion": "3.4.16",
  "updatedAt": "2025-04-12T04:34:15.094Z",
  "devdoc": {
    "kind": "dev",
    "methods": {},
    "version": 1
  },
  "userdoc": {
    "kind": "user",
    "methods": {},
    "version": 1
  }
}