{
  "contractName": "MentalHealthBooking",
  "abi": [
    {
      "anonymous": false,
      "inputs": [
        {
          "indexed": false,
          "internalType": "uint256",
          "name": "id",
          "type": "uint256"
        },
        {
          "indexed": false,
          "internalType": "uint256",
          "name": "therapistId",
          "type": "uint256"
        },
        {
          "indexed": false,
          "internalType": "uint256",
          "name": "slotTime",
          "type": "uint256"
        }
      ],
      "name": "AppointmentBooked",
      "type": "event"
    },
    {
      "anonymous": false,
      "inputs": [
        {
          "indexed": false,
          "internalType": "uint256",
          "name": "id",
          "type": "uint256"
        },
        {
          "indexed": false,
          "internalType": "string",
          "name": "name",
          "type": "string"
        }
      ],
      "name": "TherapistAdded",
      "type": "event"
    },
    {
      "inputs": [
        {
          "internalType": "uint256",
          "name": "",
          "type": "uint256"
        }
      ],
      "name": "appointments",
      "outputs": [
        {
          "internalType": "uint256",
          "name": "id",
          "type": "uint256"
        },
        {
          "internalType": "uint256",
          "name": "therapistId",
          "type": "uint256"
        },
        {
          "internalType": "uint256",
          "name": "slotTime",
          "type": "uint256"
        },
        {
          "internalType": "string",
          "name": "sessionType",
          "type": "string"
        },
        {
          "internalType": "address",
          "name": "client",
          "type": "address"
        },
        {
          "internalType": "bool",
          "name": "isConfirmed",
          "type": "bool"
        }
      ],
      "stateMutability": "view",
      "type": "function"
    },
    {
      "inputs": [],
      "name": "nextAppointmentId",
      "outputs": [
        {
          "internalType": "uint256",
          "name": "",
          "type": "uint256"
        }
      ],
      "stateMutability": "view",
      "type": "function"
    },
    {
      "inputs": [],
      "name": "nextTherapistId",
      "outputs": [
        {
          "internalType": "uint256",
          "name": "",
          "type": "uint256"
        }
      ],
      "stateMutability": "view",
      "type": "function"
    },
    {
      "inputs": [
        {
          "internalType": "uint256",
          "name": "",
          "type": "uint256"
        }
      ],
      "name": "therapists",
      "outputs": [
        {
          "internalType": "uint256",
          "name": "id",
          "type": "uint256"
        },
        {
          "internalType": "string",
          "name": "name",
          "type": "string"
        },
        {
          "internalType": "string",
          "name": "specialization",
          "type": "string"
        },
        {
          "internalType": "uint256",
          "name": "fee",
          "type": "uint256"
        },
        {
          "internalType": "bool",
          "name": "isVerified",
          "type": "bool"
        }
      ],
      "stateMutability": "view",
      "type": "function"
    },
    {
      "inputs": [
        {
          "internalType": "string",
          "name": "_name",
          "type": "string"
        },
        {
          "internalType": "string",
          "name": "_specialization",
          "type": "string"
        },
        {
          "internalType": "uint256[]",
          "name": "_availableSlots",
          "type": "uint256[]"
        },
        {
          "internalType": "uint256",
          "name": "_fee",
          "type": "uint256"
        }
      ],
      "name": "addTherapist",
      "outputs": [],
      "stateMutability": "nonpayable",
      "type": "function"
    },
    {
      "inputs": [
        {
          "internalType": "uint256",
          "name": "_therapistId",
          "type": "uint256"
        },
        {
          "internalType": "uint256",
          "name": "_slotTime",
          "type": "uint256"
        },
        {
          "internalType": "string",
          "name": "_sessionType",
          "type": "string"
        }
      ],
      "name": "bookAppointment",
      "outputs": [],
      "stateMutability": "nonpayable",
      "type": "function"
    },
    {
      "inputs": [],
      "name": "getAllTherapists",
      "outputs": [
        {
          "components": [
            {
              "internalType": "uint256",
              "name": "id",
              "type": "uint256"
            },
            {
              "internalType": "string",
              "name": "name",
              "type": "string"
            },
            {
              "internalType": "string",
              "name": "specialization",
              "type": "string"
            },
            {
              "internalType": "uint256[]",
              "name": "availableSlots",
              "type": "uint256[]"
            },
            {
              "internalType": "uint256",
              "name": "fee",
              "type": "uint256"
            },
            {
              "internalType": "bool",
              "name": "isVerified",
              "type": "bool"
            }
          ],
          "internalType": "struct MentalHealthBooking.Therapist[]",
          "name": "",
          "type": "tuple[]"
        }
      ],
      "stateMutability": "view",
      "type": "function"
    },
    {
      "inputs": [
        {
          "internalType": "address",
          "name": "_client",
          "type": "address"
        }
      ],
      "name": "getClientAppointments",
      "outputs": [
        {
          "components": [
            {
              "internalType": "uint256",
              "name": "id",
              "type": "uint256"
            },
            {
              "internalType": "uint256",
              "name": "therapistId",
              "type": "uint256"
            },
            {
              "internalType": "uint256",
              "name": "slotTime",
              "type": "uint256"
            },
            {
              "internalType": "string",
              "name": "sessionType",
              "type": "string"
            },
            {
              "internalType": "address",
              "name": "client",
              "type": "address"
            },
            {
              "internalType": "bool",
              "name": "isConfirmed",
              "type": "bool"
            }
          ],
          "internalType": "struct MentalHealthBooking.Appointment[]",
          "name": "",
          "type": "tuple[]"
        }
      ],
      "stateMutability": "view",
      "type": "function"
    }
  ],
  "bytecode": "0x60806040526001600255600160035534801561001a57600080fd5b50611a328061002a6000396000f3fe608060405234801561001057600080fd5b50600436106100885760003560e01c806372b1590d1161005b57806372b1590d1461013057806389dcc4a21461014c578063e4cc4e451461016a578063fa27d8451461019a57610088565b806312dc90131461008d57806324aeac6b146100c257806325e040ee146100e05780635ea473d214610114575b600080fd5b6100a760048036038101906100a2919061109f565b6101b8565b6040516100b99695949392919061162a565b60405180910390f35b6100ca6102b9565b6040516100d79190611505565b60405180910390f35b6100fa60048036038101906100f5919061109f565b6104c3565b60405161010b959493929190611592565b60405180910390f35b61012e600480360381019061012991906110c8565b610626565b005b61014a60048036038101906101459190610ff4565b6108fc565b005b610154610a3f565b6040516101619190611547565b60405180910390f35b610184600480360381019061017f9190610fcb565b610a45565b60405161019191906114e3565b60405180910390f35b6101a2610d5f565b6040516101af9190611547565b60405180910390f35b600181815481106101c857600080fd5b90600052602060002090600502016000915090508060000154908060010154908060020154908060030180546101fd906118b5565b80601f0160208091040260200160405190810160405280929190818152602001828054610229906118b5565b80156102765780601f1061024b57610100808354040283529160200191610276565b820191906000526020600020905b81548152906001019060200180831161025957829003601f168201915b5050505050908060040160009054906101000a900473ffffffffffffffffffffffffffffffffffffffff16908060040160149054906101000a900460ff16905086565b60606000805480602002602001604051908101604052809291908181526020016000905b828210156104ba57838290600052602060002090600602016040518060c00160405290816000820154815260200160018201805461031a906118b5565b80601f0160208091040260200160405190810160405280929190818152602001828054610346906118b5565b80156103935780601f1061036857610100808354040283529160200191610393565b820191906000526020600020905b81548152906001019060200180831161037657829003601f168201915b505050505081526020016002820180546103ac906118b5565b80601f01602080910402602001604051908101604052809291908181526020018280546103d8906118b5565b80156104255780601f106103fa57610100808354040283529160200191610425565b820191906000526020600020905b81548152906001019060200180831161040857829003601f168201915b505050505081526020016003820180548060200260200160405190810160405280929190818152602001828054801561047d57602002820191906000526020600020905b815481526020019060010190808311610469575b50505050508152602001600482015481526020016005820160009054906101000a900460ff161515151581525050815260200190600101906102dd565b50505050905090565b600081815481106104d357600080fd5b90600052602060002090600602016000915090508060000154908060010180546104fc906118b5565b80601f0160208091040260200160405190810160405280929190818152602001828054610528906118b5565b80156105755780601f1061054a57610100808354040283529160200191610575565b820191906000526020600020905b81548152906001019060200180831161055857829003601f168201915b50505050509080600201805461058a906118b5565b80601f01602080910402602001604051908101604052809291908181526020018280546105b6906118b5565b80156106035780601f106105d857610100808354040283529160200191610603565b820191906000526020600020905b8154815290600101906020018083116105e657829003601f168201915b5050505050908060040154908060050160009054906101000a900460ff16905085565b6000805b600060018661063991906117f7565b81548110610670577f4e487b7100000000000000000000000000000000000000000000000000000000600052603260045260246000fd5b9060005260206000209060060201600301805490508110156107495783600060018761069c91906117f7565b815481106106d3577f4e487b7100000000000000000000000000000000000000000000000000000000600052603260045260246000fd5b9060005260206000209060060201600301828154811061071c577f4e487b7100000000000000000000000000000000000000000000000000000000600052603260045260246000fd5b906000526020600020015414156107365760019150610749565b8080610741906118e7565b91505061062a565b508061078a576040517f08c379a000000000000000000000000000000000000000000000000000000000815260040161078190611527565b60405180910390fd5b60016040518060c0016040528060035481526020018681526020018581526020018481526020013373ffffffffffffffffffffffffffffffffffffffff1681526020016001151581525090806001815401808255809150506001900390600052602060002090600502016000909190919091506000820151816000015560208201518160010155604082015181600201556060820151816003019080519060200190610837929190610d65565b5060808201518160040160006101000a81548173ffffffffffffffffffffffffffffffffffffffff021916908373ffffffffffffffffffffffffffffffffffffffff16021790555060a08201518160040160146101000a81548160ff02191690831515021790555050507fbab5dd534562101ec65ddbf2ffb9d652156a761c94ab7f4362cba2bbc03eee9660035485856040516108d6939291906115f3565b60405180910390a1600360008154809291906108f1906118e7565b919050555050505050565b60006040518060c00160405280600254815260200186815260200185815260200184815260200183815260200160011515815250908060018154018082558091505060019003906000526020600020906006020160009091909190915060008201518160000155602082015181600101908051906020019061097f929190610d65565b50604082015181600201908051906020019061099c929190610d65565b5060608201518160030190805190602001906109b9929190610deb565b506080820151816004015560a08201518160050160006101000a81548160ff02191690831515021790555050507f7a3c35256ab23a518a303efca5233373c97eb62f47a0c021bf2e3d954d24631960025485604051610a19929190611562565b60405180910390a160026000815480929190610a34906118e7565b919050555050505050565b60035481565b6060600060018054905067ffffffffffffffff811115610a8e577f4e487b7100000000000000000000000000000000000000000000000000000000600052604160045260246000fd5b604051908082528060200260200182016040528015610ac757816020015b610ab4610e38565b815260200190600190039081610aac5790505b5090506000805b600180549050811015610d54578473ffffffffffffffffffffffffffffffffffffffff1660018281548110610b2c577f4e487b7100000000000000000000000000000000000000000000000000000000600052603260045260246000fd5b906000526020600020906005020160040160009054906101000a900473ffffffffffffffffffffffffffffffffffffffff1673ffffffffffffffffffffffffffffffffffffffff161415610d415760018181548110610bb4577f4e487b7100000000000000000000000000000000000000000000000000000000600052603260045260246000fd5b90600052602060002090600502016040518060c0016040529081600082015481526020016001820154815260200160028201548152602001600382018054610bfb906118b5565b80601f0160208091040260200160405190810160405280929190818152602001828054610c27906118b5565b8015610c745780601f10610c4957610100808354040283529160200191610c74565b820191906000526020600020905b815481529060010190602001808311610c5757829003601f168201915b505050505081526020016004820160009054906101000a900473ffffffffffffffffffffffffffffffffffffffff1673ffffffffffffffffffffffffffffffffffffffff1673ffffffffffffffffffffffffffffffffffffffff1681526020016004820160149054906101000a900460ff161515151581525050838381518110610d27577f4e487b7100000000000000000000000000000000000000000000000000000000600052603260045260246000fd5b60200260200101819052508180610d3d906118e7565b9250505b8080610d4c906118e7565b915050610ace565b508192505050919050565b60025481565b828054610d71906118b5565b90600052602060002090601f016020900481019282610d935760008555610dda565b82601f10610dac57805160ff1916838001178555610dda565b82800160010185558215610dda579182015b82811115610dd9578251825591602001919060010190610dbe565b5b509050610de79190610e86565b5090565b828054828255906000526020600020908101928215610e27579160200282015b82811115610e26578251825591602001919060010190610e0b565b5b509050610e349190610e86565b5090565b6040518060c0016040528060008152602001600081526020016000815260200160608152602001600073ffffffffffffffffffffffffffffffffffffffff1681526020016000151581525090565b5b80821115610e9f576000816000905550600101610e87565b5090565b6000610eb6610eb1846116c3565b611692565b90508083825260208201905082856020860282011115610ed557600080fd5b60005b85811015610f055781610eeb8882610fb6565b845260208401935060208301925050600181019050610ed8565b5050509392505050565b6000610f22610f1d846116ef565b611692565b905082815260208101848484011115610f3a57600080fd5b610f45848285611873565b509392505050565b600081359050610f5c816119ce565b92915050565b600082601f830112610f7357600080fd5b8135610f83848260208601610ea3565b91505092915050565b600082601f830112610f9d57600080fd5b8135610fad848260208601610f0f565b91505092915050565b600081359050610fc5816119e5565b92915050565b600060208284031215610fdd57600080fd5b6000610feb84828501610f4d565b91505092915050565b6000806000806080858703121561100a57600080fd5b600085013567ffffffffffffffff81111561102457600080fd5b61103087828801610f8c565b945050602085013567ffffffffffffffff81111561104d57600080fd5b61105987828801610f8c565b935050604085013567ffffffffffffffff81111561107657600080fd5b61108287828801610f62565b925050606061109387828801610fb6565b91505092959194509250565b6000602082840312156110b157600080fd5b60006110bf84828501610fb6565b91505092915050565b6000806000606084860312156110dd57600080fd5b60006110eb86828701610fb6565b93505060206110fc86828701610fb6565b925050604084013567ffffffffffffffff81111561111957600080fd5b61112586828701610f8c565b9150509250925092565b600061113b83836113a5565b905092915050565b600061114f838361142e565b905092915050565b600061116383836114c5565b60208301905092915050565b6111788161182b565b82525050565b6111878161182b565b82525050565b60006111988261174f565b6111a281856117a2565b9350836020820285016111b48561171f565b8060005b858110156111f057848403895281516111d1858261112f565b94506111dc8361177b565b925060208a019950506001810190506111b8565b50829750879550505050505092915050565b600061120d8261175a565b61121781856117b3565b9350836020820285016112298561172f565b8060005b8581101561126557848403895281516112468582611143565b945061125183611788565b925060208a0199505060018101905061122d565b50829750879550505050505092915050565b600061128282611765565b61128c81856117c4565b93506112978361173f565b8060005b838110156112c85781516112af8882611157565b97506112ba83611795565b92505060018101905061129b565b5085935050505092915050565b6112de8161183d565b82525050565b6112ed8161183d565b82525050565b60006112fe82611770565b61130881856117d5565b9350611318818560208601611882565b611321816119bd565b840191505092915050565b600061133782611770565b61134181856117e6565b9350611351818560208601611882565b61135a816119bd565b840191505092915050565b60006113726012836117e6565b91507f536c6f74206e6f7420617661696c61626c6500000000000000000000000000006000830152602082019050919050565b600060c0830160008301516113bd60008601826114c5565b5060208301516113d060208601826114c5565b5060408301516113e360408601826114c5565b50606083015184820360608601526113fb82826112f3565b9150506080830151611410608086018261116f565b5060a083015161142360a08601826112d5565b508091505092915050565b600060c08301600083015161144660008601826114c5565b506020830151848203602086015261145e82826112f3565b9150506040830151848203604086015261147882826112f3565b915050606083015184820360608601526114928282611277565b91505060808301516114a760808601826114c5565b5060a08301516114ba60a08601826112d5565b508091505092915050565b6114ce81611869565b82525050565b6114dd81611869565b82525050565b600060208201905081810360008301526114fd818461118d565b905092915050565b6000602082019050818103600083015261151f8184611202565b905092915050565b6000602082019050818103600083015261154081611365565b9050919050565b600060208201905061155c60008301846114d4565b92915050565b600060408201905061157760008301856114d4565b8181036020830152611589818461132c565b90509392505050565b600060a0820190506115a760008301886114d4565b81810360208301526115b9818761132c565b905081810360408301526115cd818661132c565b90506115dc60608301856114d4565b6115e960808301846112e4565b9695505050505050565b600060608201905061160860008301866114d4565b61161560208301856114d4565b61162260408301846114d4565b949350505050565b600060c08201905061163f60008301896114d4565b61164c60208301886114d4565b61165960408301876114d4565b818103606083015261166b818661132c565b905061167a608083018561117e565b61168760a08301846112e4565b979650505050505050565b6000604051905081810181811067ffffffffffffffff821117156116b9576116b861198e565b5b8060405250919050565b600067ffffffffffffffff8211156116de576116dd61198e565b5b602082029050602081019050919050565b600067ffffffffffffffff82111561170a5761170961198e565b5b601f19601f8301169050602081019050919050565b6000819050602082019050919050565b6000819050602082019050919050565b6000819050602082019050919050565b600081519050919050565b600081519050919050565b600081519050919050565b600081519050919050565b6000602082019050919050565b6000602082019050919050565b6000602082019050919050565b600082825260208201905092915050565b600082825260208201905092915050565b600082825260208201905092915050565b600082825260208201905092915050565b600082825260208201905092915050565b600061180282611869565b915061180d83611869565b9250828210156118205761181f611930565b5b828203905092915050565b600061183682611849565b9050919050565b60008115159050919050565b600073ffffffffffffffffffffffffffffffffffffffff82169050919050565b6000819050919050565b82818337600083830152505050565b60005b838110156118a0578082015181840152602081019050611885565b838111156118af576000848401525b50505050565b600060028204905060018216806118cd57607f821691505b602082108114156118e1576118e061195f565b5b50919050565b60006118f282611869565b91507fffffffffffffffffffffffffffffffffffffffffffffffffffffffffffffffff82141561192557611924611930565b5b600182019050919050565b7f4e487b7100000000000000000000000000000000000000000000000000000000600052601160045260246000fd5b7f4e487b7100000000000000000000000000000000000000000000000000000000600052602260045260246000fd5b7f4e487b7100000000000000000000000000000000000000000000000000000000600052604160045260246000fd5b6000601f19601f8301169050919050565b6119d78161182b565b81146119e257600080fd5b50565b6119ee81611869565b81146119f957600080fd5b5056fea26469706673582212203e681483ce626cf563255a60be9796b7aaccb686e286a0b83115b99a3f6f25f464736f6c63430008000033",
  "immutableReferences": {},
  "source": "// SPDX-License-Identifier: MIT\npragma solidity ^0.8.0;\n\ncontract MentalHealthBooking {\n    // Structs (custom data types)\n    struct Therapist {\n        uint id;\n        string name;\n        string specialization;\n        uint[] availableSlots; // Unix timestamps\n        uint fee;\n        bool isVerified;\n    }\n\n    struct Appointment {\n        uint id;\n        uint therapistId;\n        uint slotTime;\n        string sessionType; // \"Individual\", \"Group\", \"EAP\"\n        address client; // Anonymous ID (if needed, use a hash)\n        bool isConfirmed;\n    }\n\n    // State Variables (stored on blockchain)\n    Therapist[] public therapists;\n    Appointment[] public appointments;\n    uint public nextTherapistId = 1;\n    uint public nextAppointmentId = 1;\n\n    // Events (for frontend notifications)\n    event TherapistAdded(uint id, string name);\n    event AppointmentBooked(uint id, uint therapistId, uint slotTime);\n\n    // Add a new therapist (only admin in future)\n    function addTherapist(\n        string memory _name,\n        string memory _specialization,\n        uint[] memory _availableSlots,\n        uint _fee\n    ) public {\n        therapists.push(\n            Therapist({\n                id: nextTherapistId,\n                name: _name,\n                specialization: _specialization,\n                availableSlots: _availableSlots,\n                fee: _fee,\n                isVerified: true\n            })\n        );\n        emit TherapistAdded(nextTherapistId, _name);\n        nextTherapistId++;\n    }\n\n    // Book an appointment\n    function bookAppointment(\n        uint _therapistId,\n        uint _slotTime,\n        string memory _sessionType\n    ) public {\n        // Check if slot is available (simplified for now)\n        bool isSlotAvailable = false;\n        for (uint i = 0; i < therapists[_therapistId - 1].availableSlots.length; i++) {\n            if (therapists[_therapistId - 1].availableSlots[i] == _slotTime) {\n                isSlotAvailable = true;\n                break;\n            }\n        }\n        require(isSlotAvailable, \"Slot not available\");\n\n        // Create appointment\n        appointments.push(\n            Appointment({\n                id: nextAppointmentId,\n                therapistId: _therapistId,\n                slotTime: _slotTime,\n                sessionType: _sessionType,\n                client: msg.sender, // Client's wallet address (or anonymized later)\n                isConfirmed: true\n            })\n        );\n\n        emit AppointmentBooked(nextAppointmentId, _therapistId, _slotTime);\n        nextAppointmentId++;\n    }\n\n    // Get all therapists (for frontend display)\n    function getAllTherapists() public view returns (Therapist[] memory) {\n        return therapists;\n    }\n\n    // Get all appointments for a client\n    function getClientAppointments(address _client) public view returns (Appointment[] memory) {\n        Appointment[] memory result = new Appointment[](appointments.length);\n        uint counter = 0;\n        for (uint i = 0; i < appointments.length; i++) {\n            if (appointments[i].client == _client) {\n                result[counter] = appointments[i];\n                counter++;\n            }\n        }\n        return result;\n    }\n}",
  "sourcePath": "/Users/nikhilparajuli/Downloads/Nikhil Docs/appp/mental-health-dapp/contracts/MentalHealthBooking.sol",
  "compiler": {
    "name": "solc",
    "version": "0.8.0+commit.c7dfd78e.Emscripten.clang"
  },
  "schemaVersion": "3.4.14",
  "updatedAt": "2025-04-11T10:10:34.210Z",
  "devdoc": {
    "kind": "dev",
    "methods": {},
    "version": 1
  },
  "userdoc": {
    "kind": "user",
    "methods": {},
    "version": 1
  }
}